{
  "_format": "hh-sol-artifact-1",
  "contractName": "MyHardhatTokenV2",
  "sourceName": "contracts/MyHardhatTokenV2.sol",
  "abi": [
    {
      "anonymous": false,
      "inputs": [
        {
          "indexed": true,
          "internalType": "address",
          "name": "owner",
          "type": "address"
        },
        {
          "indexed": true,
          "internalType": "address",
          "name": "spender",
          "type": "address"
        },
        {
          "indexed": false,
          "internalType": "uint256",
          "name": "value",
          "type": "uint256"
        }
      ],
      "name": "Approval",
      "type": "event"
    },
    {
      "anonymous": false,
      "inputs": [
        {
          "indexed": false,
          "internalType": "uint8",
          "name": "version",
          "type": "uint8"
        }
      ],
      "name": "Initialized",
      "type": "event"
    },
    {
      "anonymous": false,
      "inputs": [
        {
          "indexed": true,
          "internalType": "address",
          "name": "previousOwner",
          "type": "address"
        },
        {
          "indexed": true,
          "internalType": "address",
          "name": "newOwner",
          "type": "address"
        }
      ],
      "name": "OwnershipTransferred",
      "type": "event"
    },
    {
      "anonymous": false,
      "inputs": [
        {
          "indexed": true,
          "internalType": "address",
          "name": "from",
          "type": "address"
        },
        {
          "indexed": true,
          "internalType": "address",
          "name": "to",
          "type": "address"
        },
        {
          "indexed": false,
          "internalType": "uint256",
          "name": "value",
          "type": "uint256"
        }
      ],
      "name": "Transfer",
      "type": "event"
    },
    {
      "inputs": [
        {
          "internalType": "address",
          "name": "owner",
          "type": "address"
        },
        {
          "internalType": "address",
          "name": "spender",
          "type": "address"
        }
      ],
      "name": "allowance",
      "outputs": [
        {
          "internalType": "uint256",
          "name": "",
          "type": "uint256"
        }
      ],
      "stateMutability": "view",
      "type": "function"
    },
    {
      "inputs": [
        {
          "internalType": "address",
          "name": "spender",
          "type": "address"
        },
        {
          "internalType": "uint256",
          "name": "amount",
          "type": "uint256"
        }
      ],
      "name": "approve",
      "outputs": [
        {
          "internalType": "bool",
          "name": "",
          "type": "bool"
        }
      ],
      "stateMutability": "nonpayable",
      "type": "function"
    },
    {
      "inputs": [
        {
          "internalType": "address",
          "name": "account",
          "type": "address"
        }
      ],
      "name": "balanceOf",
      "outputs": [
        {
          "internalType": "uint256",
          "name": "",
          "type": "uint256"
        }
      ],
      "stateMutability": "view",
      "type": "function"
    },
    {
      "inputs": [],
      "name": "decimals",
      "outputs": [
        {
          "internalType": "uint8",
          "name": "",
          "type": "uint8"
        }
      ],
      "stateMutability": "view",
      "type": "function"
    },
    {
      "inputs": [
        {
          "internalType": "address",
          "name": "spender",
          "type": "address"
        },
        {
          "internalType": "uint256",
          "name": "subtractedValue",
          "type": "uint256"
        }
      ],
      "name": "decreaseAllowance",
      "outputs": [
        {
          "internalType": "bool",
          "name": "",
          "type": "bool"
        }
      ],
      "stateMutability": "nonpayable",
      "type": "function"
    },
    {
      "inputs": [
        {
          "internalType": "address",
          "name": "spender",
          "type": "address"
        },
        {
          "internalType": "uint256",
          "name": "addedValue",
          "type": "uint256"
        }
      ],
      "name": "increaseAllowance",
      "outputs": [
        {
          "internalType": "bool",
          "name": "",
          "type": "bool"
        }
      ],
      "stateMutability": "nonpayable",
      "type": "function"
    },
    {
      "inputs": [],
      "name": "initialize",
      "outputs": [],
      "stateMutability": "nonpayable",
      "type": "function"
    },
    {
      "inputs": [],
      "name": "name",
      "outputs": [
        {
          "internalType": "string",
          "name": "",
          "type": "string"
        }
      ],
      "stateMutability": "view",
      "type": "function"
    },
    {
      "inputs": [],
      "name": "owner",
      "outputs": [
        {
          "internalType": "address",
          "name": "",
          "type": "address"
        }
      ],
      "stateMutability": "view",
      "type": "function"
    },
    {
      "inputs": [],
      "name": "renounceOwnership",
      "outputs": [],
      "stateMutability": "nonpayable",
      "type": "function"
    },
    {
      "inputs": [],
      "name": "symbol",
      "outputs": [
        {
          "internalType": "string",
          "name": "",
          "type": "string"
        }
      ],
      "stateMutability": "view",
      "type": "function"
    },
    {
      "inputs": [],
      "name": "totalSupply",
      "outputs": [
        {
          "internalType": "uint256",
          "name": "",
          "type": "uint256"
        }
      ],
      "stateMutability": "view",
      "type": "function"
    },
    {
      "inputs": [
        {
          "internalType": "address",
          "name": "to",
          "type": "address"
        },
        {
          "internalType": "uint256",
          "name": "amount",
          "type": "uint256"
        }
      ],
      "name": "transfer",
      "outputs": [
        {
          "internalType": "bool",
          "name": "",
          "type": "bool"
        }
      ],
      "stateMutability": "nonpayable",
      "type": "function"
    },
    {
      "inputs": [
        {
          "internalType": "address",
          "name": "from",
          "type": "address"
        },
        {
          "internalType": "address",
          "name": "to",
          "type": "address"
        },
        {
          "internalType": "uint256",
          "name": "amount",
          "type": "uint256"
        }
      ],
      "name": "transferFrom",
      "outputs": [
        {
          "internalType": "bool",
          "name": "",
          "type": "bool"
        }
      ],
      "stateMutability": "nonpayable",
      "type": "function"
    },
    {
      "inputs": [
        {
          "internalType": "address",
          "name": "newOwner",
          "type": "address"
        }
      ],
      "name": "transferOwnership",
      "outputs": [],
      "stateMutability": "nonpayable",
      "type": "function"
    },
    {
      "inputs": [],
      "name": "val",
      "outputs": [
        {
          "internalType": "uint256",
          "name": "",
          "type": "uint256"
        }
      ],
      "stateMutability": "view",
      "type": "function"
    }
  ],
  "bytecode": "0x608060405234801561001057600080fd5b50611956806100206000396000f3fe608060405234801561001057600080fd5b50600436106101005760003560e01c8063715018a611610097578063a457c2d711610066578063a457c2d71461028d578063a9059cbb146102bd578063dd62ed3e146102ed578063f2fde38b1461031d57610100565b8063715018a61461023d5780638129fc1c146102475780638da5cb5b1461025157806395d89b411461026f57610100565b8063313ce567116100d3578063313ce567146101a157806339509351146101bf5780633c6bb436146101ef57806370a082311461020d57610100565b806306fdde0314610105578063095ea7b31461012357806318160ddd1461015357806323b872dd14610171575b600080fd5b61010d610339565b60405161011a9190611056565b60405180910390f35b61013d60048036038101906101389190611111565b6103cb565b60405161014a919061116c565b60405180910390f35b61015b6103ee565b6040516101689190611196565b60405180910390f35b61018b600480360381019061018691906111b1565b6103f8565b604051610198919061116c565b60405180910390f35b6101a9610427565b6040516101b69190611220565b60405180910390f35b6101d960048036038101906101d49190611111565b610430565b6040516101e6919061116c565b60405180910390f35b6101f7610467565b6040516102049190611196565b60405180910390f35b6102276004803603810190610222919061123b565b61046d565b6040516102349190611196565b60405180910390f35b6102456104b6565b005b61024f61053e565b005b6102596105b4565b6040516102669190611277565b60405180910390f35b6102776105de565b6040516102849190611056565b60405180910390f35b6102a760048036038101906102a29190611111565b610670565b6040516102b4919061116c565b60405180910390f35b6102d760048036038101906102d29190611111565b6106e7565b6040516102e4919061116c565b60405180910390f35b61030760048036038101906103029190611292565b61070a565b6040516103149190611196565b60405180910390f35b6103376004803603810190610332919061123b565b610791565b005b60606036805461034890611301565b80601f016020809104026020016040519081016040528092919081815260200182805461037490611301565b80156103c15780601f10610396576101008083540402835291602001916103c1565b820191906000526020600020905b8154815290600101906020018083116103a457829003601f168201915b5050505050905090565b6000806103d6610889565b90506103e3818585610891565b600191505092915050565b6000603554905090565b600080610403610889565b9050610410858285610a5c565b61041b858585610ae8565b60019150509392505050565b60006012905090565b60008061043b610889565b905061045c81858561044d858961070a565b6104579190611362565b610891565b600191505092915050565b60975481565b6000603360008373ffffffffffffffffffffffffffffffffffffffff1673ffffffffffffffffffffffffffffffffffffffff168152602001908152602001600020549050919050565b6104be610889565b73ffffffffffffffffffffffffffffffffffffffff166104dc6105b4565b73ffffffffffffffffffffffffffffffffffffffff1614610532576040517f08c379a000000000000000000000000000000000000000000000000000000000815260040161052990611404565b60405180910390fd5b61053c6000610d6c565b565b6105b26040518060400160405280600e81526020017f4d7948617264686174546f6b656e0000000000000000000000000000000000008152506040518060400160405280600381526020017f4d48540000000000000000000000000000000000000000000000000000000000815250610e32565b565b6000606560009054906101000a900473ffffffffffffffffffffffffffffffffffffffff16905090565b6060603780546105ed90611301565b80601f016020809104026020016040519081016040528092919081815260200182805461061990611301565b80156106665780601f1061063b57610100808354040283529160200191610666565b820191906000526020600020905b81548152906001019060200180831161064957829003601f168201915b5050505050905090565b60008061067b610889565b90506000610689828661070a565b9050838110156106ce576040517f08c379a00000000000000000000000000000000000000000000000000000000081526004016106c590611496565b60405180910390fd5b6106db8286868403610891565b60019250505092915050565b6000806106f2610889565b90506106ff818585610ae8565b600191505092915050565b6000603460008473ffffffffffffffffffffffffffffffffffffffff1673ffffffffffffffffffffffffffffffffffffffff16815260200190815260200160002060008373ffffffffffffffffffffffffffffffffffffffff1673ffffffffffffffffffffffffffffffffffffffff16815260200190815260200160002054905092915050565b610799610889565b73ffffffffffffffffffffffffffffffffffffffff166107b76105b4565b73ffffffffffffffffffffffffffffffffffffffff161461080d576040517f08c379a000000000000000000000000000000000000000000000000000000000815260040161080490611404565b60405180910390fd5b600073ffffffffffffffffffffffffffffffffffffffff168173ffffffffffffffffffffffffffffffffffffffff16141561087d576040517f08c379a000000000000000000000000000000000000000000000000000000000815260040161087490611528565b60405180910390fd5b61088681610d6c565b50565b600033905090565b600073ffffffffffffffffffffffffffffffffffffffff168373ffffffffffffffffffffffffffffffffffffffff161415610901576040517f08c379a00000000000000000000000000000000000000000000000000000000081526004016108f8906115ba565b60405180910390fd5b600073ffffffffffffffffffffffffffffffffffffffff168273ffffffffffffffffffffffffffffffffffffffff161415610971576040517f08c379a00000000000000000000000000000000000000000000000000000000081526004016109689061164c565b60405180910390fd5b80603460008573ffffffffffffffffffffffffffffffffffffffff1673ffffffffffffffffffffffffffffffffffffffff16815260200190815260200160002060008473ffffffffffffffffffffffffffffffffffffffff1673ffffffffffffffffffffffffffffffffffffffff168152602001908152602001600020819055508173ffffffffffffffffffffffffffffffffffffffff168373ffffffffffffffffffffffffffffffffffffffff167f8c5be1e5ebec7d5bd14f71427d1e84f3dd0314c0f7b2291e5b200ac8c7c3b92583604051610a4f9190611196565b60405180910390a3505050565b6000610a68848461070a565b90507fffffffffffffffffffffffffffffffffffffffffffffffffffffffffffffffff8114610ae25781811015610ad4576040517f08c379a0000000000000000000000000000000000000000000000000000000008152600401610acb906116b8565b60405180910390fd5b610ae18484848403610891565b5b50505050565b600073ffffffffffffffffffffffffffffffffffffffff168373ffffffffffffffffffffffffffffffffffffffff161415610b58576040517f08c379a0000000000000000000000000000000000000000000000000000000008152600401610b4f9061174a565b60405180910390fd5b600073ffffffffffffffffffffffffffffffffffffffff168273ffffffffffffffffffffffffffffffffffffffff161415610bc8576040517f08c379a0000000000000000000000000000000000000000000000000000000008152600401610bbf906117dc565b60405180910390fd5b610bd3838383610e8f565b6000603360008573ffffffffffffffffffffffffffffffffffffffff1673ffffffffffffffffffffffffffffffffffffffff16815260200190815260200160002054905081811015610c5a576040517f08c379a0000000000000000000000000000000000000000000000000000000008152600401610c519061186e565b60405180910390fd5b818103603360008673ffffffffffffffffffffffffffffffffffffffff1673ffffffffffffffffffffffffffffffffffffffff1681526020019081526020016000208190555081603360008573ffffffffffffffffffffffffffffffffffffffff1673ffffffffffffffffffffffffffffffffffffffff1681526020019081526020016000206000828254610cef9190611362565b925050819055508273ffffffffffffffffffffffffffffffffffffffff168473ffffffffffffffffffffffffffffffffffffffff167fddf252ad1be2c89b69c2b068fc378daa952ba7f163c4a11628f55a4df523b3ef84604051610d539190611196565b60405180910390a3610d66848484610e94565b50505050565b6000606560009054906101000a900473ffffffffffffffffffffffffffffffffffffffff16905081606560006101000a81548173ffffffffffffffffffffffffffffffffffffffff021916908373ffffffffffffffffffffffffffffffffffffffff1602179055508173ffffffffffffffffffffffffffffffffffffffff168173ffffffffffffffffffffffffffffffffffffffff167f8be0079c531659141344cd1fd0a4f28419497f9722a3daafe3b4186f6b6457e060405160405180910390a35050565b600060019054906101000a900460ff16610e81576040517f08c379a0000000000000000000000000000000000000000000000000000000008152600401610e7890611900565b60405180910390fd5b610e8b8282610e99565b5050565b505050565b505050565b600060019054906101000a900460ff16610ee8576040517f08c379a0000000000000000000000000000000000000000000000000000000008152600401610edf90611900565b60405180910390fd5b8160369080519060200190610efe929190610f1a565b508060379080519060200190610f15929190610f1a565b505050565b828054610f2690611301565b90600052602060002090601f016020900481019282610f485760008555610f8f565b82601f10610f6157805160ff1916838001178555610f8f565b82800160010185558215610f8f579182015b82811115610f8e578251825591602001919060010190610f73565b5b509050610f9c9190610fa0565b5090565b5b80821115610fb9576000816000905550600101610fa1565b5090565b600081519050919050565b600082825260208201905092915050565b60005b83811015610ff7578082015181840152602081019050610fdc565b83811115611006576000848401525b50505050565b6000601f19601f8301169050919050565b600061102882610fbd565b6110328185610fc8565b9350611042818560208601610fd9565b61104b8161100c565b840191505092915050565b60006020820190508181036000830152611070818461101d565b905092915050565b600080fd5b600073ffffffffffffffffffffffffffffffffffffffff82169050919050565b60006110a88261107d565b9050919050565b6110b88161109d565b81146110c357600080fd5b50565b6000813590506110d5816110af565b92915050565b6000819050919050565b6110ee816110db565b81146110f957600080fd5b50565b60008135905061110b816110e5565b92915050565b6000806040838503121561112857611127611078565b5b6000611136858286016110c6565b9250506020611147858286016110fc565b9150509250929050565b60008115159050919050565b61116681611151565b82525050565b6000602082019050611181600083018461115d565b92915050565b611190816110db565b82525050565b60006020820190506111ab6000830184611187565b92915050565b6000806000606084860312156111ca576111c9611078565b5b60006111d8868287016110c6565b93505060206111e9868287016110c6565b92505060406111fa868287016110fc565b9150509250925092565b600060ff82169050919050565b61121a81611204565b82525050565b60006020820190506112356000830184611211565b92915050565b60006020828403121561125157611250611078565b5b600061125f848285016110c6565b91505092915050565b6112718161109d565b82525050565b600060208201905061128c6000830184611268565b92915050565b600080604083850312156112a9576112a8611078565b5b60006112b7858286016110c6565b92505060206112c8858286016110c6565b9150509250929050565b7f4e487b7100000000000000000000000000000000000000000000000000000000600052602260045260246000fd5b6000600282049050600182168061131957607f821691505b6020821081141561132d5761132c6112d2565b5b50919050565b7f4e487b7100000000000000000000000000000000000000000000000000000000600052601160045260246000fd5b600061136d826110db565b9150611378836110db565b9250827fffffffffffffffffffffffffffffffffffffffffffffffffffffffffffffffff038211156113ad576113ac611333565b5b828201905092915050565b7f4f776e61626c653a2063616c6c6572206973206e6f7420746865206f776e6572600082015250565b60006113ee602083610fc8565b91506113f9826113b8565b602082019050919050565b6000602082019050818103600083015261141d816113e1565b9050919050565b7f45524332303a2064656372656173656420616c6c6f77616e63652062656c6f7760008201527f207a65726f000000000000000000000000000000000000000000000000000000602082015250565b6000611480602583610fc8565b915061148b82611424565b604082019050919050565b600060208201905081810360008301526114af81611473565b9050919050565b7f4f776e61626c653a206e6577206f776e657220697320746865207a65726f206160008201527f6464726573730000000000000000000000000000000000000000000000000000602082015250565b6000611512602683610fc8565b915061151d826114b6565b604082019050919050565b6000602082019050818103600083015261154181611505565b9050919050565b7f45524332303a20617070726f76652066726f6d20746865207a65726f2061646460008201527f7265737300000000000000000000000000000000000000000000000000000000602082015250565b60006115a4602483610fc8565b91506115af82611548565b604082019050919050565b600060208201905081810360008301526115d381611597565b9050919050565b7f45524332303a20617070726f766520746f20746865207a65726f20616464726560008201527f7373000000000000000000000000000000000000000000000000000000000000602082015250565b6000611636602283610fc8565b9150611641826115da565b604082019050919050565b6000602082019050818103600083015261166581611629565b9050919050565b7f45524332303a20696e73756666696369656e7420616c6c6f77616e6365000000600082015250565b60006116a2601d83610fc8565b91506116ad8261166c565b602082019050919050565b600060208201905081810360008301526116d181611695565b9050919050565b7f45524332303a207472616e736665722066726f6d20746865207a65726f20616460008201527f6472657373000000000000000000000000000000000000000000000000000000602082015250565b6000611734602583610fc8565b915061173f826116d8565b604082019050919050565b6000602082019050818103600083015261176381611727565b9050919050565b7f45524332303a207472616e7366657220746f20746865207a65726f206164647260008201527f6573730000000000000000000000000000000000000000000000000000000000602082015250565b60006117c6602383610fc8565b91506117d18261176a565b604082019050919050565b600060208201905081810360008301526117f5816117b9565b9050919050565b7f45524332303a207472616e7366657220616d6f756e742065786365656473206260008201527f616c616e63650000000000000000000000000000000000000000000000000000602082015250565b6000611858602683610fc8565b9150611863826117fc565b604082019050919050565b600060208201905081810360008301526118878161184b565b9050919050565b7f496e697469616c697a61626c653a20636f6e7472616374206973206e6f74206960008201527f6e697469616c697a696e67000000000000000000000000000000000000000000602082015250565b60006118ea602b83610fc8565b91506118f58261188e565b604082019050919050565b60006020820190508181036000830152611919816118dd565b905091905056fea2646970667358221220d296392b72542b05f613a47d0ab889f5269609251df92faac97874bd9510697164736f6c634300080a0033",
  "linkReferences": {},
  "deployedLinkReferences": {}
}