{
  "_format": "hh-sol-artifact-1",
  "contractName": "MyHardhatTokenV2",
  "sourceName": "contracts/MyHardhatTokenV2.sol",
  "abi": [
    {
      "anonymous": false,
      "inputs": [
        {
          "indexed": false,
          "internalType": "address",
          "name": "previousAdmin",
          "type": "address"
        },
        {
          "indexed": false,
          "internalType": "address",
          "name": "newAdmin",
          "type": "address"
        }
      ],
      "name": "AdminChanged",
      "type": "event"
    },
    {
      "anonymous": false,
      "inputs": [
        {
          "indexed": true,
          "internalType": "address",
          "name": "owner",
          "type": "address"
        },
        {
          "indexed": true,
          "internalType": "address",
          "name": "spender",
          "type": "address"
        },
        {
          "indexed": false,
          "internalType": "uint256",
          "name": "value",
          "type": "uint256"
        }
      ],
      "name": "Approval",
      "type": "event"
    },
    {
      "anonymous": false,
      "inputs": [
        {
          "indexed": true,
          "internalType": "address",
          "name": "beacon",
          "type": "address"
        }
      ],
      "name": "BeaconUpgraded",
      "type": "event"
    },
    {
      "anonymous": false,
      "inputs": [
        {
          "indexed": false,
          "internalType": "uint8",
          "name": "version",
          "type": "uint8"
        }
      ],
      "name": "Initialized",
      "type": "event"
    },
    {
      "anonymous": false,
      "inputs": [
        {
          "indexed": true,
          "internalType": "address",
          "name": "previousOwner",
          "type": "address"
        },
        {
          "indexed": true,
          "internalType": "address",
          "name": "newOwner",
          "type": "address"
        }
      ],
      "name": "OwnershipTransferred",
      "type": "event"
    },
    {
      "anonymous": false,
      "inputs": [
        {
          "indexed": true,
          "internalType": "address",
          "name": "from",
          "type": "address"
        },
        {
          "indexed": true,
          "internalType": "address",
          "name": "to",
          "type": "address"
        },
        {
          "indexed": false,
          "internalType": "uint256",
          "name": "value",
          "type": "uint256"
        }
      ],
      "name": "Transfer",
      "type": "event"
    },
    {
      "anonymous": false,
      "inputs": [
        {
          "indexed": true,
          "internalType": "address",
          "name": "implementation",
          "type": "address"
        }
      ],
      "name": "Upgraded",
      "type": "event"
    },
    {
      "inputs": [
        {
          "internalType": "uint256",
          "name": "_val",
          "type": "uint256"
        }
      ],
      "name": "add",
      "outputs": [],
      "stateMutability": "nonpayable",
      "type": "function"
    },
    {
      "inputs": [
        {
          "internalType": "address",
          "name": "owner",
          "type": "address"
        },
        {
          "internalType": "address",
          "name": "spender",
          "type": "address"
        }
      ],
      "name": "allowance",
      "outputs": [
        {
          "internalType": "uint256",
          "name": "",
          "type": "uint256"
        }
      ],
      "stateMutability": "view",
      "type": "function"
    },
    {
      "inputs": [
        {
          "internalType": "address",
          "name": "spender",
          "type": "address"
        },
        {
          "internalType": "uint256",
          "name": "amount",
          "type": "uint256"
        }
      ],
      "name": "approve",
      "outputs": [
        {
          "internalType": "bool",
          "name": "",
          "type": "bool"
        }
      ],
      "stateMutability": "nonpayable",
      "type": "function"
    },
    {
      "inputs": [
        {
          "internalType": "address",
          "name": "account",
          "type": "address"
        }
      ],
      "name": "balanceOf",
      "outputs": [
        {
          "internalType": "uint256",
          "name": "",
          "type": "uint256"
        }
      ],
      "stateMutability": "view",
      "type": "function"
    },
    {
      "inputs": [],
      "name": "decimals",
      "outputs": [
        {
          "internalType": "uint8",
          "name": "",
          "type": "uint8"
        }
      ],
      "stateMutability": "view",
      "type": "function"
    },
    {
      "inputs": [
        {
          "internalType": "address",
          "name": "spender",
          "type": "address"
        },
        {
          "internalType": "uint256",
          "name": "subtractedValue",
          "type": "uint256"
        }
      ],
      "name": "decreaseAllowance",
      "outputs": [
        {
          "internalType": "bool",
          "name": "",
          "type": "bool"
        }
      ],
      "stateMutability": "nonpayable",
      "type": "function"
    },
    {
      "inputs": [
        {
          "internalType": "address",
          "name": "spender",
          "type": "address"
        },
        {
          "internalType": "uint256",
          "name": "addedValue",
          "type": "uint256"
        }
      ],
      "name": "increaseAllowance",
      "outputs": [
        {
          "internalType": "bool",
          "name": "",
          "type": "bool"
        }
      ],
      "stateMutability": "nonpayable",
      "type": "function"
    },
    {
      "inputs": [],
      "name": "initialize",
      "outputs": [],
      "stateMutability": "nonpayable",
      "type": "function"
    },
    {
      "inputs": [],
      "name": "name",
      "outputs": [
        {
          "internalType": "string",
          "name": "",
          "type": "string"
        }
      ],
      "stateMutability": "view",
      "type": "function"
    },
    {
      "inputs": [],
      "name": "owner",
      "outputs": [
        {
          "internalType": "address",
          "name": "",
          "type": "address"
        }
      ],
      "stateMutability": "view",
      "type": "function"
    },
    {
      "inputs": [],
      "name": "proxiableUUID",
      "outputs": [
        {
          "internalType": "bytes32",
          "name": "",
          "type": "bytes32"
        }
      ],
      "stateMutability": "view",
      "type": "function"
    },
    {
      "inputs": [],
      "name": "renounceOwnership",
      "outputs": [],
      "stateMutability": "nonpayable",
      "type": "function"
    },
    {
      "inputs": [],
      "name": "symbol",
      "outputs": [
        {
          "internalType": "string",
          "name": "",
          "type": "string"
        }
      ],
      "stateMutability": "view",
      "type": "function"
    },
    {
      "inputs": [],
      "name": "totalSupply",
      "outputs": [
        {
          "internalType": "uint256",
          "name": "",
          "type": "uint256"
        }
      ],
      "stateMutability": "view",
      "type": "function"
    },
    {
      "inputs": [
        {
          "internalType": "address",
          "name": "to",
          "type": "address"
        },
        {
          "internalType": "uint256",
          "name": "amount",
          "type": "uint256"
        }
      ],
      "name": "transfer",
      "outputs": [
        {
          "internalType": "bool",
          "name": "",
          "type": "bool"
        }
      ],
      "stateMutability": "nonpayable",
      "type": "function"
    },
    {
      "inputs": [
        {
          "internalType": "address",
          "name": "from",
          "type": "address"
        },
        {
          "internalType": "address",
          "name": "to",
          "type": "address"
        },
        {
          "internalType": "uint256",
          "name": "amount",
          "type": "uint256"
        }
      ],
      "name": "transferFrom",
      "outputs": [
        {
          "internalType": "bool",
          "name": "",
          "type": "bool"
        }
      ],
      "stateMutability": "nonpayable",
      "type": "function"
    },
    {
      "inputs": [
        {
          "internalType": "address",
          "name": "newOwner",
          "type": "address"
        }
      ],
      "name": "transferOwnership",
      "outputs": [],
      "stateMutability": "nonpayable",
      "type": "function"
    },
    {
      "inputs": [
        {
          "internalType": "address",
          "name": "newImplementation",
          "type": "address"
        }
      ],
      "name": "upgradeTo",
      "outputs": [],
      "stateMutability": "nonpayable",
      "type": "function"
    },
    {
      "inputs": [
        {
          "internalType": "address",
          "name": "newImplementation",
          "type": "address"
        },
        {
          "internalType": "bytes",
          "name": "data",
          "type": "bytes"
        }
      ],
      "name": "upgradeToAndCall",
      "outputs": [],
      "stateMutability": "payable",
      "type": "function"
    },
    {
      "inputs": [],
      "name": "val",
      "outputs": [
        {
          "internalType": "uint256",
          "name": "",
          "type": "uint256"
        }
      ],
      "stateMutability": "view",
      "type": "function"
    }
  ],
  "bytecode": "0x60a06040523073ffffffffffffffffffffffffffffffffffffffff1660809073ffffffffffffffffffffffffffffffffffffffff1681525034801561004357600080fd5b50608051612fb761007b600039600081816105d6015281816106650152818161079c0152818161082b01526108db0152612fb76000f3fe60806040526004361061011f5760003560e01c806352d1902d116100a057806395d89b411161006457806395d89b41146103b6578063a457c2d7146103e1578063a9059cbb1461041e578063dd62ed3e1461045b578063f2fde38b146104985761011f565b806352d1902d146102f557806370a0823114610320578063715018a61461035d5780638129fc1c146103745780638da5cb5b1461038b5761011f565b8063313ce567116100e7578063313ce5671461021d5780633659cfe61461024857806339509351146102715780633c6bb436146102ae5780634f1ef286146102d95761011f565b806306fdde0314610124578063095ea7b31461014f5780631003e2d21461018c57806318160ddd146101b557806323b872dd146101e0575b600080fd5b34801561013057600080fd5b506101396104c1565b6040516101469190611e7c565b60405180910390f35b34801561015b57600080fd5b5061017660048036038101906101719190611f46565b610553565b6040516101839190611fa1565b60405180910390f35b34801561019857600080fd5b506101b360048036038101906101ae9190611fbc565b610576565b005b3480156101c157600080fd5b506101ca610592565b6040516101d79190611ff8565b60405180910390f35b3480156101ec57600080fd5b5061020760048036038101906102029190612013565b61059c565b6040516102149190611fa1565b60405180910390f35b34801561022957600080fd5b506102326105cb565b60405161023f9190612082565b60405180910390f35b34801561025457600080fd5b5061026f600480360381019061026a919061209d565b6105d4565b005b34801561027d57600080fd5b5061029860048036038101906102939190611f46565b61075d565b6040516102a59190611fa1565b60405180910390f35b3480156102ba57600080fd5b506102c3610794565b6040516102d09190611ff8565b60405180910390f35b6102f360048036038101906102ee91906121ff565b61079a565b005b34801561030157600080fd5b5061030a6108d7565b6040516103179190612274565b60405180910390f35b34801561032c57600080fd5b506103476004803603810190610342919061209d565b610990565b6040516103549190611ff8565b60405180910390f35b34801561036957600080fd5b506103726109d9565b005b34801561038057600080fd5b50610389610a61565b005b34801561039757600080fd5b506103a0610b84565b6040516103ad919061229e565b60405180910390f35b3480156103c257600080fd5b506103cb610bae565b6040516103d89190611e7c565b60405180910390f35b3480156103ed57600080fd5b5061040860048036038101906104039190611f46565b610c40565b6040516104159190611fa1565b60405180910390f35b34801561042a57600080fd5b5061044560048036038101906104409190611f46565b610cb7565b6040516104529190611fa1565b60405180910390f35b34801561046757600080fd5b50610482600480360381019061047d91906122b9565b610cda565b60405161048f9190611ff8565b60405180910390f35b3480156104a457600080fd5b506104bf60048036038101906104ba919061209d565b610d61565b005b6060603680546104d090612328565b80601f01602080910402602001604051908101604052809291908181526020018280546104fc90612328565b80156105495780601f1061051e57610100808354040283529160200191610549565b820191906000526020600020905b81548152906001019060200180831161052c57829003601f168201915b5050505050905090565b60008061055e610e59565b905061056b818585610e61565b600191505092915050565b8060fb60008282546105889190612389565b9250508190555050565b6000603554905090565b6000806105a7610e59565b90506105b485828561102c565b6105bf8585856110b8565b60019150509392505050565b60006012905090565b7f000000000000000000000000000000000000000000000000000000000000000073ffffffffffffffffffffffffffffffffffffffff163073ffffffffffffffffffffffffffffffffffffffff161415610663576040517f08c379a000000000000000000000000000000000000000000000000000000000815260040161065a90612451565b60405180910390fd5b7f000000000000000000000000000000000000000000000000000000000000000073ffffffffffffffffffffffffffffffffffffffff166106a261133c565b73ffffffffffffffffffffffffffffffffffffffff16146106f8576040517f08c379a00000000000000000000000000000000000000000000000000000000081526004016106ef906124e3565b60405180910390fd5b61070181611393565b61075a81600067ffffffffffffffff8111156107205761071f6120d4565b5b6040519080825280601f01601f1916602001820160405280156107525781602001600182028036833780820191505090505b506000611412565b50565b600080610768610e59565b905061078981858561077a8589610cda565b6107849190612389565b610e61565b600191505092915050565b60fb5481565b7f000000000000000000000000000000000000000000000000000000000000000073ffffffffffffffffffffffffffffffffffffffff163073ffffffffffffffffffffffffffffffffffffffff161415610829576040517f08c379a000000000000000000000000000000000000000000000000000000000815260040161082090612451565b60405180910390fd5b7f000000000000000000000000000000000000000000000000000000000000000073ffffffffffffffffffffffffffffffffffffffff1661086861133c565b73ffffffffffffffffffffffffffffffffffffffff16146108be576040517f08c379a00000000000000000000000000000000000000000000000000000000081526004016108b5906124e3565b60405180910390fd5b6108c782611393565b6108d382826001611412565b5050565b60007f000000000000000000000000000000000000000000000000000000000000000073ffffffffffffffffffffffffffffffffffffffff163073ffffffffffffffffffffffffffffffffffffffff1614610967576040517f08c379a000000000000000000000000000000000000000000000000000000000815260040161095e90612575565b60405180910390fd5b7f360894a13ba1a3210667c828492db98dca3e2076cc3735a920a3ca505d382bbc60001b905090565b6000603360008373ffffffffffffffffffffffffffffffffffffffff1673ffffffffffffffffffffffffffffffffffffffff168152602001908152602001600020549050919050565b6109e1610e59565b73ffffffffffffffffffffffffffffffffffffffff166109ff610b84565b73ffffffffffffffffffffffffffffffffffffffff1614610a55576040517f08c379a0000000000000000000000000000000000000000000000000000000008152600401610a4c906125e1565b60405180910390fd5b610a5f6000611580565b565b6000610a6d6001611646565b90508015610a91576001600060016101000a81548160ff0219169083151502179055505b610b056040518060400160405280600e81526020017f4d7948617264686174546f6b656e0000000000000000000000000000000000008152506040518060400160405280600381526020017f4d48540000000000000000000000000000000000000000000000000000000000815250611736565b610b0d611793565b610b156117ec565b610b28336806aaf7c8516d0c000061183d565b8015610b815760008060016101000a81548160ff0219169083151502179055507f7f26b83ff96e1f2b6a682f133852f6798a09c465da95921460cefb38474024986001604051610b789190612646565b60405180910390a15b50565b600060c960009054906101000a900473ffffffffffffffffffffffffffffffffffffffff16905090565b606060378054610bbd90612328565b80601f0160208091040260200160405190810160405280929190818152602001828054610be990612328565b8015610c365780601f10610c0b57610100808354040283529160200191610c36565b820191906000526020600020905b815481529060010190602001808311610c1957829003601f168201915b5050505050905090565b600080610c4b610e59565b90506000610c598286610cda565b905083811015610c9e576040517f08c379a0000000000000000000000000000000000000000000000000000000008152600401610c95906126d3565b60405180910390fd5b610cab8286868403610e61565b60019250505092915050565b600080610cc2610e59565b9050610ccf8185856110b8565b600191505092915050565b6000603460008473ffffffffffffffffffffffffffffffffffffffff1673ffffffffffffffffffffffffffffffffffffffff16815260200190815260200160002060008373ffffffffffffffffffffffffffffffffffffffff1673ffffffffffffffffffffffffffffffffffffffff16815260200190815260200160002054905092915050565b610d69610e59565b73ffffffffffffffffffffffffffffffffffffffff16610d87610b84565b73ffffffffffffffffffffffffffffffffffffffff1614610ddd576040517f08c379a0000000000000000000000000000000000000000000000000000000008152600401610dd4906125e1565b60405180910390fd5b600073ffffffffffffffffffffffffffffffffffffffff168173ffffffffffffffffffffffffffffffffffffffff161415610e4d576040517f08c379a0000000000000000000000000000000000000000000000000000000008152600401610e4490612765565b60405180910390fd5b610e5681611580565b50565b600033905090565b600073ffffffffffffffffffffffffffffffffffffffff168373ffffffffffffffffffffffffffffffffffffffff161415610ed1576040517f08c379a0000000000000000000000000000000000000000000000000000000008152600401610ec8906127f7565b60405180910390fd5b600073ffffffffffffffffffffffffffffffffffffffff168273ffffffffffffffffffffffffffffffffffffffff161415610f41576040517f08c379a0000000000000000000000000000000000000000000000000000000008152600401610f3890612889565b60405180910390fd5b80603460008573ffffffffffffffffffffffffffffffffffffffff1673ffffffffffffffffffffffffffffffffffffffff16815260200190815260200160002060008473ffffffffffffffffffffffffffffffffffffffff1673ffffffffffffffffffffffffffffffffffffffff168152602001908152602001600020819055508173ffffffffffffffffffffffffffffffffffffffff168373ffffffffffffffffffffffffffffffffffffffff167f8c5be1e5ebec7d5bd14f71427d1e84f3dd0314c0f7b2291e5b200ac8c7c3b9258360405161101f9190611ff8565b60405180910390a3505050565b60006110388484610cda565b90507fffffffffffffffffffffffffffffffffffffffffffffffffffffffffffffffff81146110b257818110156110a4576040517f08c379a000000000000000000000000000000000000000000000000000000000815260040161109b906128f5565b60405180910390fd5b6110b18484848403610e61565b5b50505050565b600073ffffffffffffffffffffffffffffffffffffffff168373ffffffffffffffffffffffffffffffffffffffff161415611128576040517f08c379a000000000000000000000000000000000000000000000000000000000815260040161111f90612987565b60405180910390fd5b600073ffffffffffffffffffffffffffffffffffffffff168273ffffffffffffffffffffffffffffffffffffffff161415611198576040517f08c379a000000000000000000000000000000000000000000000000000000000815260040161118f90612a19565b60405180910390fd5b6111a383838361199e565b6000603360008573ffffffffffffffffffffffffffffffffffffffff1673ffffffffffffffffffffffffffffffffffffffff1681526020019081526020016000205490508181101561122a576040517f08c379a000000000000000000000000000000000000000000000000000000000815260040161122190612aab565b60405180910390fd5b818103603360008673ffffffffffffffffffffffffffffffffffffffff1673ffffffffffffffffffffffffffffffffffffffff1681526020019081526020016000208190555081603360008573ffffffffffffffffffffffffffffffffffffffff1673ffffffffffffffffffffffffffffffffffffffff16815260200190815260200160002060008282546112bf9190612389565b925050819055508273ffffffffffffffffffffffffffffffffffffffff168473ffffffffffffffffffffffffffffffffffffffff167fddf252ad1be2c89b69c2b068fc378daa952ba7f163c4a11628f55a4df523b3ef846040516113239190611ff8565b60405180910390a36113368484846119a3565b50505050565b600061136a7f360894a13ba1a3210667c828492db98dca3e2076cc3735a920a3ca505d382bbc60001b6119a8565b60000160009054906101000a900473ffffffffffffffffffffffffffffffffffffffff16905090565b61139b610e59565b73ffffffffffffffffffffffffffffffffffffffff166113b9610b84565b73ffffffffffffffffffffffffffffffffffffffff161461140f576040517f08c379a0000000000000000000000000000000000000000000000000000000008152600401611406906125e1565b60405180910390fd5b50565b61143e7f4910fdfa16fed3260ed0e7147f7cc6da11a60208b5b9406d12a635614ffd914360001b6119b2565b60000160009054906101000a900460ff16156114625761145d836119bc565b61157b565b8273ffffffffffffffffffffffffffffffffffffffff166352d1902d6040518163ffffffff1660e01b8152600401602060405180830381865afa9250505080156114ca57506040513d601f19601f820116820180604052508101906114c79190612af7565b60015b611509576040517f08c379a000000000000000000000000000000000000000000000000000000000815260040161150090612b96565b60405180910390fd5b7f360894a13ba1a3210667c828492db98dca3e2076cc3735a920a3ca505d382bbc60001b811461156e576040517f08c379a000000000000000000000000000000000000000000000000000000000815260040161156590612c28565b60405180910390fd5b5061157a838383611a75565b5b505050565b600060c960009054906101000a900473ffffffffffffffffffffffffffffffffffffffff1690508160c960006101000a81548173ffffffffffffffffffffffffffffffffffffffff021916908373ffffffffffffffffffffffffffffffffffffffff1602179055508173ffffffffffffffffffffffffffffffffffffffff168173ffffffffffffffffffffffffffffffffffffffff167f8be0079c531659141344cd1fd0a4f28419497f9722a3daafe3b4186f6b6457e060405160405180910390a35050565b60008060019054906101000a900460ff16156116bd5760018260ff16148015611675575061167330611aa1565b155b6116b4576040517f08c379a00000000000000000000000000000000000000000000000000000000081526004016116ab90612cba565b60405180910390fd5b60009050611731565b8160ff1660008054906101000a900460ff1660ff1610611712576040517f08c379a000000000000000000000000000000000000000000000000000000000815260040161170990612cba565b60405180910390fd5b816000806101000a81548160ff021916908360ff160217905550600190505b919050565b600060019054906101000a900460ff16611785576040517f08c379a000000000000000000000000000000000000000000000000000000000815260040161177c90612d4c565b60405180910390fd5b61178f8282611ac4565b5050565b600060019054906101000a900460ff166117e2576040517f08c379a00000000000000000000000000000000000000000000000000000000081526004016117d990612d4c565b60405180910390fd5b6117ea611b45565b565b600060019054906101000a900460ff1661183b576040517f08c379a000000000000000000000000000000000000000000000000000000000815260040161183290612d4c565b60405180910390fd5b565b600073ffffffffffffffffffffffffffffffffffffffff168273ffffffffffffffffffffffffffffffffffffffff1614156118ad576040517f08c379a00000000000000000000000000000000000000000000000000000000081526004016118a490612db8565b60405180910390fd5b6118b96000838361199e565b80603560008282546118cb9190612389565b9250508190555080603360008473ffffffffffffffffffffffffffffffffffffffff1673ffffffffffffffffffffffffffffffffffffffff16815260200190815260200160002060008282546119219190612389565b925050819055508173ffffffffffffffffffffffffffffffffffffffff16600073ffffffffffffffffffffffffffffffffffffffff167fddf252ad1be2c89b69c2b068fc378daa952ba7f163c4a11628f55a4df523b3ef836040516119869190611ff8565b60405180910390a361199a600083836119a3565b5050565b505050565b505050565b6000819050919050565b6000819050919050565b6119c581611aa1565b611a04576040517f08c379a00000000000000000000000000000000000000000000000000000000081526004016119fb90612e4a565b60405180910390fd5b80611a317f360894a13ba1a3210667c828492db98dca3e2076cc3735a920a3ca505d382bbc60001b6119a8565b60000160006101000a81548173ffffffffffffffffffffffffffffffffffffffff021916908373ffffffffffffffffffffffffffffffffffffffff16021790555050565b611a7e83611ba6565b600082511180611a8b5750805b15611a9c57611a9a8383611bf5565b505b505050565b6000808273ffffffffffffffffffffffffffffffffffffffff163b119050919050565b600060019054906101000a900460ff16611b13576040517f08c379a0000000000000000000000000000000000000000000000000000000008152600401611b0a90612d4c565b60405180910390fd5b8160369080519060200190611b29929190611d40565b508060379080519060200190611b40929190611d40565b505050565b600060019054906101000a900460ff16611b94576040517f08c379a0000000000000000000000000000000000000000000000000000000008152600401611b8b90612d4c565b60405180910390fd5b611ba4611b9f610e59565b611580565b565b611baf816119bc565b8073ffffffffffffffffffffffffffffffffffffffff167fbc7cd75a20ee27fd9adebab32041f755214dbc6bffa90cc0225b39da2e5c2d3b60405160405180910390a250565b6060611c0083611aa1565b611c3f576040517f08c379a0000000000000000000000000000000000000000000000000000000008152600401611c3690612edc565b60405180910390fd5b6000808473ffffffffffffffffffffffffffffffffffffffff1684604051611c679190612f43565b600060405180830381855af49150503d8060008114611ca2576040519150601f19603f3d011682016040523d82523d6000602084013e611ca7565b606091505b5091509150611ccf8282604051806060016040528060278152602001612f5b60279139611cd9565b9250505092915050565b60608315611ce957829050611d39565b600083511115611cfc5782518084602001fd5b816040517f08c379a0000000000000000000000000000000000000000000000000000000008152600401611d309190611e7c565b60405180910390fd5b9392505050565b828054611d4c90612328565b90600052602060002090601f016020900481019282611d6e5760008555611db5565b82601f10611d8757805160ff1916838001178555611db5565b82800160010185558215611db5579182015b82811115611db4578251825591602001919060010190611d99565b5b509050611dc29190611dc6565b5090565b5b80821115611ddf576000816000905550600101611dc7565b5090565b600081519050919050565b600082825260208201905092915050565b60005b83811015611e1d578082015181840152602081019050611e02565b83811115611e2c576000848401525b50505050565b6000601f19601f8301169050919050565b6000611e4e82611de3565b611e588185611dee565b9350611e68818560208601611dff565b611e7181611e32565b840191505092915050565b60006020820190508181036000830152611e968184611e43565b905092915050565b6000604051905090565b600080fd5b600080fd5b600073ffffffffffffffffffffffffffffffffffffffff82169050919050565b6000611edd82611eb2565b9050919050565b611eed81611ed2565b8114611ef857600080fd5b50565b600081359050611f0a81611ee4565b92915050565b6000819050919050565b611f2381611f10565b8114611f2e57600080fd5b50565b600081359050611f4081611f1a565b92915050565b60008060408385031215611f5d57611f5c611ea8565b5b6000611f6b85828601611efb565b9250506020611f7c85828601611f31565b9150509250929050565b60008115159050919050565b611f9b81611f86565b82525050565b6000602082019050611fb66000830184611f92565b92915050565b600060208284031215611fd257611fd1611ea8565b5b6000611fe084828501611f31565b91505092915050565b611ff281611f10565b82525050565b600060208201905061200d6000830184611fe9565b92915050565b60008060006060848603121561202c5761202b611ea8565b5b600061203a86828701611efb565b935050602061204b86828701611efb565b925050604061205c86828701611f31565b9150509250925092565b600060ff82169050919050565b61207c81612066565b82525050565b60006020820190506120976000830184612073565b92915050565b6000602082840312156120b3576120b2611ea8565b5b60006120c184828501611efb565b91505092915050565b600080fd5b600080fd5b7f4e487b7100000000000000000000000000000000000000000000000000000000600052604160045260246000fd5b61210c82611e32565b810181811067ffffffffffffffff8211171561212b5761212a6120d4565b5b80604052505050565b600061213e611e9e565b905061214a8282612103565b919050565b600067ffffffffffffffff82111561216a576121696120d4565b5b61217382611e32565b9050602081019050919050565b82818337600083830152505050565b60006121a261219d8461214f565b612134565b9050828152602081018484840111156121be576121bd6120cf565b5b6121c9848285612180565b509392505050565b600082601f8301126121e6576121e56120ca565b5b81356121f684826020860161218f565b91505092915050565b6000806040838503121561221657612215611ea8565b5b600061222485828601611efb565b925050602083013567ffffffffffffffff81111561224557612244611ead565b5b612251858286016121d1565b9150509250929050565b6000819050919050565b61226e8161225b565b82525050565b60006020820190506122896000830184612265565b92915050565b61229881611ed2565b82525050565b60006020820190506122b3600083018461228f565b92915050565b600080604083850312156122d0576122cf611ea8565b5b60006122de85828601611efb565b92505060206122ef85828601611efb565b9150509250929050565b7f4e487b7100000000000000000000000000000000000000000000000000000000600052602260045260246000fd5b6000600282049050600182168061234057607f821691505b60208210811415612354576123536122f9565b5b50919050565b7f4e487b7100000000000000000000000000000000000000000000000000000000600052601160045260246000fd5b600061239482611f10565b915061239f83611f10565b9250827fffffffffffffffffffffffffffffffffffffffffffffffffffffffffffffffff038211156123d4576123d361235a565b5b828201905092915050565b7f46756e6374696f6e206d7573742062652063616c6c6564207468726f7567682060008201527f64656c656761746563616c6c0000000000000000000000000000000000000000602082015250565b600061243b602c83611dee565b9150612446826123df565b604082019050919050565b6000602082019050818103600083015261246a8161242e565b9050919050565b7f46756e6374696f6e206d7573742062652063616c6c6564207468726f7567682060008201527f6163746976652070726f78790000000000000000000000000000000000000000602082015250565b60006124cd602c83611dee565b91506124d882612471565b604082019050919050565b600060208201905081810360008301526124fc816124c0565b9050919050565b7f555550535570677261646561626c653a206d757374206e6f742062652063616c60008201527f6c6564207468726f7567682064656c656761746563616c6c0000000000000000602082015250565b600061255f603883611dee565b915061256a82612503565b604082019050919050565b6000602082019050818103600083015261258e81612552565b9050919050565b7f4f776e61626c653a2063616c6c6572206973206e6f7420746865206f776e6572600082015250565b60006125cb602083611dee565b91506125d682612595565b602082019050919050565b600060208201905081810360008301526125fa816125be565b9050919050565b6000819050919050565b6000819050919050565b600061263061262b61262684612601565b61260b565b612066565b9050919050565b61264081612615565b82525050565b600060208201905061265b6000830184612637565b92915050565b7f45524332303a2064656372656173656420616c6c6f77616e63652062656c6f7760008201527f207a65726f000000000000000000000000000000000000000000000000000000602082015250565b60006126bd602583611dee565b91506126c882612661565b604082019050919050565b600060208201905081810360008301526126ec816126b0565b9050919050565b7f4f776e61626c653a206e6577206f776e657220697320746865207a65726f206160008201527f6464726573730000000000000000000000000000000000000000000000000000602082015250565b600061274f602683611dee565b915061275a826126f3565b604082019050919050565b6000602082019050818103600083015261277e81612742565b9050919050565b7f45524332303a20617070726f76652066726f6d20746865207a65726f2061646460008201527f7265737300000000000000000000000000000000000000000000000000000000602082015250565b60006127e1602483611dee565b91506127ec82612785565b604082019050919050565b60006020820190508181036000830152612810816127d4565b9050919050565b7f45524332303a20617070726f766520746f20746865207a65726f20616464726560008201527f7373000000000000000000000000000000000000000000000000000000000000602082015250565b6000612873602283611dee565b915061287e82612817565b604082019050919050565b600060208201905081810360008301526128a281612866565b9050919050565b7f45524332303a20696e73756666696369656e7420616c6c6f77616e6365000000600082015250565b60006128df601d83611dee565b91506128ea826128a9565b602082019050919050565b6000602082019050818103600083015261290e816128d2565b9050919050565b7f45524332303a207472616e736665722066726f6d20746865207a65726f20616460008201527f6472657373000000000000000000000000000000000000000000000000000000602082015250565b6000612971602583611dee565b915061297c82612915565b604082019050919050565b600060208201905081810360008301526129a081612964565b9050919050565b7f45524332303a207472616e7366657220746f20746865207a65726f206164647260008201527f6573730000000000000000000000000000000000000000000000000000000000602082015250565b6000612a03602383611dee565b9150612a0e826129a7565b604082019050919050565b60006020820190508181036000830152612a32816129f6565b9050919050565b7f45524332303a207472616e7366657220616d6f756e742065786365656473206260008201527f616c616e63650000000000000000000000000000000000000000000000000000602082015250565b6000612a95602683611dee565b9150612aa082612a39565b604082019050919050565b60006020820190508181036000830152612ac481612a88565b9050919050565b612ad48161225b565b8114612adf57600080fd5b50565b600081519050612af181612acb565b92915050565b600060208284031215612b0d57612b0c611ea8565b5b6000612b1b84828501612ae2565b91505092915050565b7f45524331393637557067726164653a206e657720696d706c656d656e7461746960008201527f6f6e206973206e6f742055555053000000000000000000000000000000000000602082015250565b6000612b80602e83611dee565b9150612b8b82612b24565b604082019050919050565b60006020820190508181036000830152612baf81612b73565b9050919050565b7f45524331393637557067726164653a20756e737570706f727465642070726f7860008201527f6961626c65555549440000000000000000000000000000000000000000000000602082015250565b6000612c12602983611dee565b9150612c1d82612bb6565b604082019050919050565b60006020820190508181036000830152612c4181612c05565b9050919050565b7f496e697469616c697a61626c653a20636f6e747261637420697320616c72656160008201527f647920696e697469616c697a6564000000000000000000000000000000000000602082015250565b6000612ca4602e83611dee565b9150612caf82612c48565b604082019050919050565b60006020820190508181036000830152612cd381612c97565b9050919050565b7f496e697469616c697a61626c653a20636f6e7472616374206973206e6f74206960008201527f6e697469616c697a696e67000000000000000000000000000000000000000000602082015250565b6000612d36602b83611dee565b9150612d4182612cda565b604082019050919050565b60006020820190508181036000830152612d6581612d29565b9050919050565b7f45524332303a206d696e7420746f20746865207a65726f206164647265737300600082015250565b6000612da2601f83611dee565b9150612dad82612d6c565b602082019050919050565b60006020820190508181036000830152612dd181612d95565b9050919050565b7f455243313936373a206e657720696d706c656d656e746174696f6e206973206e60008201527f6f74206120636f6e747261637400000000000000000000000000000000000000602082015250565b6000612e34602d83611dee565b9150612e3f82612dd8565b604082019050919050565b60006020820190508181036000830152612e6381612e27565b9050919050565b7f416464726573733a2064656c65676174652063616c6c20746f206e6f6e2d636f60008201527f6e74726163740000000000000000000000000000000000000000000000000000602082015250565b6000612ec6602683611dee565b9150612ed182612e6a565b604082019050919050565b60006020820190508181036000830152612ef581612eb9565b9050919050565b600081519050919050565b600081905092915050565b6000612f1d82612efc565b612f278185612f07565b9350612f37818560208601611dff565b80840191505092915050565b6000612f4f8284612f12565b91508190509291505056fe416464726573733a206c6f772d6c6576656c2064656c65676174652063616c6c206661696c6564a2646970667358221220e0956a6d874790b4abb67bcf70de412c6bebcbd8384ac5b7e8d3de74accac64a64736f6c634300080a0033",
  "linkReferences": {},
  "deployedLinkReferences": {}
}