{
  "_format": "hh-sol-artifact-1",
  "contractName": "MyHardhatTokenV3",
  "sourceName": "contracts/MyHardhatTokenV3.sol",
  "abi": [
    {
      "anonymous": false,
      "inputs": [
        {
          "indexed": false,
          "internalType": "address",
          "name": "previousAdmin",
          "type": "address"
        },
        {
          "indexed": false,
          "internalType": "address",
          "name": "newAdmin",
          "type": "address"
        }
      ],
      "name": "AdminChanged",
      "type": "event"
    },
    {
      "anonymous": false,
      "inputs": [
        {
          "indexed": true,
          "internalType": "address",
          "name": "owner",
          "type": "address"
        },
        {
          "indexed": true,
          "internalType": "address",
          "name": "spender",
          "type": "address"
        },
        {
          "indexed": false,
          "internalType": "uint256",
          "name": "value",
          "type": "uint256"
        }
      ],
      "name": "Approval",
      "type": "event"
    },
    {
      "anonymous": false,
      "inputs": [
        {
          "indexed": true,
          "internalType": "address",
          "name": "beacon",
          "type": "address"
        }
      ],
      "name": "BeaconUpgraded",
      "type": "event"
    },
    {
      "anonymous": false,
      "inputs": [
        {
          "indexed": false,
          "internalType": "uint8",
          "name": "version",
          "type": "uint8"
        }
      ],
      "name": "Initialized",
      "type": "event"
    },
    {
      "anonymous": false,
      "inputs": [
        {
          "indexed": true,
          "internalType": "address",
          "name": "previousOwner",
          "type": "address"
        },
        {
          "indexed": true,
          "internalType": "address",
          "name": "newOwner",
          "type": "address"
        }
      ],
      "name": "OwnershipTransferred",
      "type": "event"
    },
    {
      "anonymous": false,
      "inputs": [
        {
          "indexed": true,
          "internalType": "address",
          "name": "from",
          "type": "address"
        },
        {
          "indexed": true,
          "internalType": "address",
          "name": "to",
          "type": "address"
        },
        {
          "indexed": false,
          "internalType": "uint256",
          "name": "value",
          "type": "uint256"
        }
      ],
      "name": "Transfer",
      "type": "event"
    },
    {
      "anonymous": false,
      "inputs": [
        {
          "indexed": true,
          "internalType": "address",
          "name": "implementation",
          "type": "address"
        }
      ],
      "name": "Upgraded",
      "type": "event"
    },
    {
      "inputs": [
        {
          "internalType": "uint256",
          "name": "_val",
          "type": "uint256"
        }
      ],
      "name": "add",
      "outputs": [],
      "stateMutability": "nonpayable",
      "type": "function"
    },
    {
      "inputs": [
        {
          "internalType": "address",
          "name": "owner",
          "type": "address"
        },
        {
          "internalType": "address",
          "name": "spender",
          "type": "address"
        }
      ],
      "name": "allowance",
      "outputs": [
        {
          "internalType": "uint256",
          "name": "",
          "type": "uint256"
        }
      ],
      "stateMutability": "view",
      "type": "function"
    },
    {
      "inputs": [
        {
          "internalType": "address",
          "name": "spender",
          "type": "address"
        },
        {
          "internalType": "uint256",
          "name": "amount",
          "type": "uint256"
        }
      ],
      "name": "approve",
      "outputs": [
        {
          "internalType": "bool",
          "name": "",
          "type": "bool"
        }
      ],
      "stateMutability": "nonpayable",
      "type": "function"
    },
    {
      "inputs": [
        {
          "internalType": "address",
          "name": "account",
          "type": "address"
        }
      ],
      "name": "balanceOf",
      "outputs": [
        {
          "internalType": "uint256",
          "name": "",
          "type": "uint256"
        }
      ],
      "stateMutability": "view",
      "type": "function"
    },
    {
      "inputs": [
        {
          "internalType": "uint256",
          "name": "amount",
          "type": "uint256"
        }
      ],
      "name": "burn_supply",
      "outputs": [],
      "stateMutability": "nonpayable",
      "type": "function"
    },
    {
      "inputs": [],
      "name": "decimals",
      "outputs": [
        {
          "internalType": "uint8",
          "name": "",
          "type": "uint8"
        }
      ],
      "stateMutability": "view",
      "type": "function"
    },
    {
      "inputs": [
        {
          "internalType": "address",
          "name": "spender",
          "type": "address"
        },
        {
          "internalType": "uint256",
          "name": "subtractedValue",
          "type": "uint256"
        }
      ],
      "name": "decreaseAllowance",
      "outputs": [
        {
          "internalType": "bool",
          "name": "",
          "type": "bool"
        }
      ],
      "stateMutability": "nonpayable",
      "type": "function"
    },
    {
      "inputs": [
        {
          "internalType": "address",
          "name": "spender",
          "type": "address"
        },
        {
          "internalType": "uint256",
          "name": "addedValue",
          "type": "uint256"
        }
      ],
      "name": "increaseAllowance",
      "outputs": [
        {
          "internalType": "bool",
          "name": "",
          "type": "bool"
        }
      ],
      "stateMutability": "nonpayable",
      "type": "function"
    },
    {
      "inputs": [],
      "name": "initialize",
      "outputs": [],
      "stateMutability": "nonpayable",
      "type": "function"
    },
    {
      "inputs": [],
      "name": "name",
      "outputs": [
        {
          "internalType": "string",
          "name": "",
          "type": "string"
        }
      ],
      "stateMutability": "view",
      "type": "function"
    },
    {
      "inputs": [],
      "name": "owner",
      "outputs": [
        {
          "internalType": "address",
          "name": "",
          "type": "address"
        }
      ],
      "stateMutability": "view",
      "type": "function"
    },
    {
      "inputs": [],
      "name": "proxiableUUID",
      "outputs": [
        {
          "internalType": "bytes32",
          "name": "",
          "type": "bytes32"
        }
      ],
      "stateMutability": "view",
      "type": "function"
    },
    {
      "inputs": [],
      "name": "renounceOwnership",
      "outputs": [],
      "stateMutability": "nonpayable",
      "type": "function"
    },
    {
      "inputs": [],
      "name": "symbol",
      "outputs": [
        {
          "internalType": "string",
          "name": "",
          "type": "string"
        }
      ],
      "stateMutability": "view",
      "type": "function"
    },
    {
      "inputs": [],
      "name": "totalSupply",
      "outputs": [
        {
          "internalType": "uint256",
          "name": "",
          "type": "uint256"
        }
      ],
      "stateMutability": "view",
      "type": "function"
    },
    {
      "inputs": [
        {
          "internalType": "address",
          "name": "to",
          "type": "address"
        },
        {
          "internalType": "uint256",
          "name": "amount",
          "type": "uint256"
        }
      ],
      "name": "transfer",
      "outputs": [
        {
          "internalType": "bool",
          "name": "",
          "type": "bool"
        }
      ],
      "stateMutability": "nonpayable",
      "type": "function"
    },
    {
      "inputs": [
        {
          "internalType": "address",
          "name": "from",
          "type": "address"
        },
        {
          "internalType": "address",
          "name": "to",
          "type": "address"
        },
        {
          "internalType": "uint256",
          "name": "amount",
          "type": "uint256"
        }
      ],
      "name": "transferFrom",
      "outputs": [
        {
          "internalType": "bool",
          "name": "",
          "type": "bool"
        }
      ],
      "stateMutability": "nonpayable",
      "type": "function"
    },
    {
      "inputs": [
        {
          "internalType": "address",
          "name": "newOwner",
          "type": "address"
        }
      ],
      "name": "transferOwnership",
      "outputs": [],
      "stateMutability": "nonpayable",
      "type": "function"
    },
    {
      "inputs": [
        {
          "internalType": "address",
          "name": "newImplementation",
          "type": "address"
        }
      ],
      "name": "upgradeTo",
      "outputs": [],
      "stateMutability": "nonpayable",
      "type": "function"
    },
    {
      "inputs": [
        {
          "internalType": "address",
          "name": "newImplementation",
          "type": "address"
        },
        {
          "internalType": "bytes",
          "name": "data",
          "type": "bytes"
        }
      ],
      "name": "upgradeToAndCall",
      "outputs": [],
      "stateMutability": "payable",
      "type": "function"
    },
    {
      "inputs": [],
      "name": "val",
      "outputs": [
        {
          "internalType": "uint256",
          "name": "",
          "type": "uint256"
        }
      ],
      "stateMutability": "view",
      "type": "function"
    }
  ],
  "bytecode": "0x60a06040523073ffffffffffffffffffffffffffffffffffffffff1660809073ffffffffffffffffffffffffffffffffffffffff1681525034801561004357600080fd5b506080516134a861007b600039600081816106de0152818161076d015281816108a40152818161093301526109e301526134a86000f3fe60806040526004361061012a5760003560e01c80634f1ef286116100ab5780638da5cb5b1161006f5780638da5cb5b146103bf57806395d89b41146103ea578063a457c2d714610415578063a9059cbb14610452578063dd62ed3e1461048f578063f2fde38b146104cc5761012a565b80634f1ef2861461030d57806352d1902d1461032957806370a0823114610354578063715018a6146103915780638129fc1c146103a85761012a565b80632973f53e116100f25780632973f53e14610228578063313ce567146102515780633659cfe61461027c57806339509351146102a55780633c6bb436146102e25761012a565b806306fdde031461012f578063095ea7b31461015a5780631003e2d21461019757806318160ddd146101c057806323b872dd146101eb575b600080fd5b34801561013b57600080fd5b506101446104f5565b604051610151919061215d565b60405180910390f35b34801561016657600080fd5b50610181600480360381019061017c9190612227565b610587565b60405161018e9190612282565b60405180910390f35b3480156101a357600080fd5b506101be60048036038101906101b9919061229d565b6105aa565b005b3480156101cc57600080fd5b506101d56105c6565b6040516101e291906122d9565b60405180910390f35b3480156101f757600080fd5b50610212600480360381019061020d91906122f4565b6105d0565b60405161021f9190612282565b60405180910390f35b34801561023457600080fd5b5061024f600480360381019061024a919061229d565b6105ff565b005b34801561025d57600080fd5b506102666106d3565b6040516102739190612363565b60405180910390f35b34801561028857600080fd5b506102a3600480360381019061029e919061237e565b6106dc565b005b3480156102b157600080fd5b506102cc60048036038101906102c79190612227565b610865565b6040516102d99190612282565b60405180910390f35b3480156102ee57600080fd5b506102f761089c565b60405161030491906122d9565b60405180910390f35b610327600480360381019061032291906124e0565b6108a2565b005b34801561033557600080fd5b5061033e6109df565b60405161034b9190612555565b60405180910390f35b34801561036057600080fd5b5061037b6004803603810190610376919061237e565b610a98565b60405161038891906122d9565b60405180910390f35b34801561039d57600080fd5b506103a6610ae1565b005b3480156103b457600080fd5b506103bd610b69565b005b3480156103cb57600080fd5b506103d4610c8c565b6040516103e1919061257f565b60405180910390f35b3480156103f657600080fd5b506103ff610cb6565b60405161040c919061215d565b60405180910390f35b34801561042157600080fd5b5061043c60048036038101906104379190612227565b610d48565b6040516104499190612282565b60405180910390f35b34801561045e57600080fd5b5061047960048036038101906104749190612227565b610dbf565b6040516104869190612282565b60405180910390f35b34801561049b57600080fd5b506104b660048036038101906104b1919061259a565b610de2565b6040516104c391906122d9565b60405180910390f35b3480156104d857600080fd5b506104f360048036038101906104ee919061237e565b610e69565b005b60606036805461050490612609565b80601f016020809104026020016040519081016040528092919081815260200182805461053090612609565b801561057d5780601f106105525761010080835404028352916020019161057d565b820191906000526020600020905b81548152906001019060200180831161056057829003601f168201915b5050505050905090565b600080610592610f61565b905061059f818585610f69565b600191505092915050565b8060fb60008282546105bc919061266a565b9250508190555050565b6000603554905090565b6000806105db610f61565b90506105e8858285611134565b6105f38585856111c0565b60019150509392505050565b610607610f61565b73ffffffffffffffffffffffffffffffffffffffff16610625610c8c565b73ffffffffffffffffffffffffffffffffffffffff161461067b576040517f08c379a00000000000000000000000000000000000000000000000000000000081526004016106729061270c565b60405180910390fd5b8061068533610a98565b10156106c6576040517f08c379a00000000000000000000000000000000000000000000000000000000081526004016106bd906127c4565b60405180910390fd5b6106d03382611444565b50565b60006012905090565b7f000000000000000000000000000000000000000000000000000000000000000073ffffffffffffffffffffffffffffffffffffffff163073ffffffffffffffffffffffffffffffffffffffff16141561076b576040517f08c379a000000000000000000000000000000000000000000000000000000000815260040161076290612856565b60405180910390fd5b7f000000000000000000000000000000000000000000000000000000000000000073ffffffffffffffffffffffffffffffffffffffff166107aa61161d565b73ffffffffffffffffffffffffffffffffffffffff1614610800576040517f08c379a00000000000000000000000000000000000000000000000000000000081526004016107f7906128e8565b60405180910390fd5b61080981611674565b61086281600067ffffffffffffffff811115610828576108276123b5565b5b6040519080825280601f01601f19166020018201604052801561085a5781602001600182028036833780820191505090505b5060006116f3565b50565b600080610870610f61565b90506108918185856108828589610de2565b61088c919061266a565b610f69565b600191505092915050565b60fb5481565b7f000000000000000000000000000000000000000000000000000000000000000073ffffffffffffffffffffffffffffffffffffffff163073ffffffffffffffffffffffffffffffffffffffff161415610931576040517f08c379a000000000000000000000000000000000000000000000000000000000815260040161092890612856565b60405180910390fd5b7f000000000000000000000000000000000000000000000000000000000000000073ffffffffffffffffffffffffffffffffffffffff1661097061161d565b73ffffffffffffffffffffffffffffffffffffffff16146109c6576040517f08c379a00000000000000000000000000000000000000000000000000000000081526004016109bd906128e8565b60405180910390fd5b6109cf82611674565b6109db828260016116f3565b5050565b60007f000000000000000000000000000000000000000000000000000000000000000073ffffffffffffffffffffffffffffffffffffffff163073ffffffffffffffffffffffffffffffffffffffff1614610a6f576040517f08c379a0000000000000000000000000000000000000000000000000000000008152600401610a669061297a565b60405180910390fd5b7f360894a13ba1a3210667c828492db98dca3e2076cc3735a920a3ca505d382bbc60001b905090565b6000603360008373ffffffffffffffffffffffffffffffffffffffff1673ffffffffffffffffffffffffffffffffffffffff168152602001908152602001600020549050919050565b610ae9610f61565b73ffffffffffffffffffffffffffffffffffffffff16610b07610c8c565b73ffffffffffffffffffffffffffffffffffffffff1614610b5d576040517f08c379a0000000000000000000000000000000000000000000000000000000008152600401610b549061270c565b60405180910390fd5b610b676000611861565b565b6000610b756001611927565b90508015610b99576001600060016101000a81548160ff0219169083151502179055505b610c0d6040518060400160405280600e81526020017f4d7948617264686174546f6b656e0000000000000000000000000000000000008152506040518060400160405280600381526020017f4d48540000000000000000000000000000000000000000000000000000000000815250611a17565b610c15611a74565b610c1d611acd565b610c30336806aaf7c8516d0c0000611b1e565b8015610c895760008060016101000a81548160ff0219169083151502179055507f7f26b83ff96e1f2b6a682f133852f6798a09c465da95921460cefb38474024986001604051610c8091906129df565b60405180910390a15b50565b600060c960009054906101000a900473ffffffffffffffffffffffffffffffffffffffff16905090565b606060378054610cc590612609565b80601f0160208091040260200160405190810160405280929190818152602001828054610cf190612609565b8015610d3e5780601f10610d1357610100808354040283529160200191610d3e565b820191906000526020600020905b815481529060010190602001808311610d2157829003601f168201915b5050505050905090565b600080610d53610f61565b90506000610d618286610de2565b905083811015610da6576040517f08c379a0000000000000000000000000000000000000000000000000000000008152600401610d9d90612a6c565b60405180910390fd5b610db38286868403610f69565b60019250505092915050565b600080610dca610f61565b9050610dd78185856111c0565b600191505092915050565b6000603460008473ffffffffffffffffffffffffffffffffffffffff1673ffffffffffffffffffffffffffffffffffffffff16815260200190815260200160002060008373ffffffffffffffffffffffffffffffffffffffff1673ffffffffffffffffffffffffffffffffffffffff16815260200190815260200160002054905092915050565b610e71610f61565b73ffffffffffffffffffffffffffffffffffffffff16610e8f610c8c565b73ffffffffffffffffffffffffffffffffffffffff1614610ee5576040517f08c379a0000000000000000000000000000000000000000000000000000000008152600401610edc9061270c565b60405180910390fd5b600073ffffffffffffffffffffffffffffffffffffffff168173ffffffffffffffffffffffffffffffffffffffff161415610f55576040517f08c379a0000000000000000000000000000000000000000000000000000000008152600401610f4c90612afe565b60405180910390fd5b610f5e81611861565b50565b600033905090565b600073ffffffffffffffffffffffffffffffffffffffff168373ffffffffffffffffffffffffffffffffffffffff161415610fd9576040517f08c379a0000000000000000000000000000000000000000000000000000000008152600401610fd090612b90565b60405180910390fd5b600073ffffffffffffffffffffffffffffffffffffffff168273ffffffffffffffffffffffffffffffffffffffff161415611049576040517f08c379a000000000000000000000000000000000000000000000000000000000815260040161104090612c22565b60405180910390fd5b80603460008573ffffffffffffffffffffffffffffffffffffffff1673ffffffffffffffffffffffffffffffffffffffff16815260200190815260200160002060008473ffffffffffffffffffffffffffffffffffffffff1673ffffffffffffffffffffffffffffffffffffffff168152602001908152602001600020819055508173ffffffffffffffffffffffffffffffffffffffff168373ffffffffffffffffffffffffffffffffffffffff167f8c5be1e5ebec7d5bd14f71427d1e84f3dd0314c0f7b2291e5b200ac8c7c3b9258360405161112791906122d9565b60405180910390a3505050565b60006111408484610de2565b90507fffffffffffffffffffffffffffffffffffffffffffffffffffffffffffffffff81146111ba57818110156111ac576040517f08c379a00000000000000000000000000000000000000000000000000000000081526004016111a390612c8e565b60405180910390fd5b6111b98484848403610f69565b5b50505050565b600073ffffffffffffffffffffffffffffffffffffffff168373ffffffffffffffffffffffffffffffffffffffff161415611230576040517f08c379a000000000000000000000000000000000000000000000000000000000815260040161122790612d20565b60405180910390fd5b600073ffffffffffffffffffffffffffffffffffffffff168273ffffffffffffffffffffffffffffffffffffffff1614156112a0576040517f08c379a000000000000000000000000000000000000000000000000000000000815260040161129790612db2565b60405180910390fd5b6112ab838383611c7f565b6000603360008573ffffffffffffffffffffffffffffffffffffffff1673ffffffffffffffffffffffffffffffffffffffff16815260200190815260200160002054905081811015611332576040517f08c379a000000000000000000000000000000000000000000000000000000000815260040161132990612e44565b60405180910390fd5b818103603360008673ffffffffffffffffffffffffffffffffffffffff1673ffffffffffffffffffffffffffffffffffffffff1681526020019081526020016000208190555081603360008573ffffffffffffffffffffffffffffffffffffffff1673ffffffffffffffffffffffffffffffffffffffff16815260200190815260200160002060008282546113c7919061266a565b925050819055508273ffffffffffffffffffffffffffffffffffffffff168473ffffffffffffffffffffffffffffffffffffffff167fddf252ad1be2c89b69c2b068fc378daa952ba7f163c4a11628f55a4df523b3ef8460405161142b91906122d9565b60405180910390a361143e848484611c84565b50505050565b600073ffffffffffffffffffffffffffffffffffffffff168273ffffffffffffffffffffffffffffffffffffffff1614156114b4576040517f08c379a00000000000000000000000000000000000000000000000000000000081526004016114ab90612ed6565b60405180910390fd5b6114c082600083611c7f565b6000603360008473ffffffffffffffffffffffffffffffffffffffff1673ffffffffffffffffffffffffffffffffffffffff16815260200190815260200160002054905081811015611547576040517f08c379a000000000000000000000000000000000000000000000000000000000815260040161153e90612f68565b60405180910390fd5b818103603360008573ffffffffffffffffffffffffffffffffffffffff1673ffffffffffffffffffffffffffffffffffffffff16815260200190815260200160002081905550816035600082825461159f9190612f88565b92505081905550600073ffffffffffffffffffffffffffffffffffffffff168373ffffffffffffffffffffffffffffffffffffffff167fddf252ad1be2c89b69c2b068fc378daa952ba7f163c4a11628f55a4df523b3ef8460405161160491906122d9565b60405180910390a361161883600084611c84565b505050565b600061164b7f360894a13ba1a3210667c828492db98dca3e2076cc3735a920a3ca505d382bbc60001b611c89565b60000160009054906101000a900473ffffffffffffffffffffffffffffffffffffffff16905090565b61167c610f61565b73ffffffffffffffffffffffffffffffffffffffff1661169a610c8c565b73ffffffffffffffffffffffffffffffffffffffff16146116f0576040517f08c379a00000000000000000000000000000000000000000000000000000000081526004016116e79061270c565b60405180910390fd5b50565b61171f7f4910fdfa16fed3260ed0e7147f7cc6da11a60208b5b9406d12a635614ffd914360001b611c93565b60000160009054906101000a900460ff16156117435761173e83611c9d565b61185c565b8273ffffffffffffffffffffffffffffffffffffffff166352d1902d6040518163ffffffff1660e01b8152600401602060405180830381865afa9250505080156117ab57506040513d601f19601f820116820180604052508101906117a89190612fe8565b60015b6117ea576040517f08c379a00000000000000000000000000000000000000000000000000000000081526004016117e190613087565b60405180910390fd5b7f360894a13ba1a3210667c828492db98dca3e2076cc3735a920a3ca505d382bbc60001b811461184f576040517f08c379a000000000000000000000000000000000000000000000000000000000815260040161184690613119565b60405180910390fd5b5061185b838383611d56565b5b505050565b600060c960009054906101000a900473ffffffffffffffffffffffffffffffffffffffff1690508160c960006101000a81548173ffffffffffffffffffffffffffffffffffffffff021916908373ffffffffffffffffffffffffffffffffffffffff1602179055508173ffffffffffffffffffffffffffffffffffffffff168173ffffffffffffffffffffffffffffffffffffffff167f8be0079c531659141344cd1fd0a4f28419497f9722a3daafe3b4186f6b6457e060405160405180910390a35050565b60008060019054906101000a900460ff161561199e5760018260ff16148015611956575061195430611d82565b155b611995576040517f08c379a000000000000000000000000000000000000000000000000000000000815260040161198c906131ab565b60405180910390fd5b60009050611a12565b8160ff1660008054906101000a900460ff1660ff16106119f3576040517f08c379a00000000000000000000000000000000000000000000000000000000081526004016119ea906131ab565b60405180910390fd5b816000806101000a81548160ff021916908360ff160217905550600190505b919050565b600060019054906101000a900460ff16611a66576040517f08c379a0000000000000000000000000000000000000000000000000000000008152600401611a5d9061323d565b60405180910390fd5b611a708282611da5565b5050565b600060019054906101000a900460ff16611ac3576040517f08c379a0000000000000000000000000000000000000000000000000000000008152600401611aba9061323d565b60405180910390fd5b611acb611e26565b565b600060019054906101000a900460ff16611b1c576040517f08c379a0000000000000000000000000000000000000000000000000000000008152600401611b139061323d565b60405180910390fd5b565b600073ffffffffffffffffffffffffffffffffffffffff168273ffffffffffffffffffffffffffffffffffffffff161415611b8e576040517f08c379a0000000000000000000000000000000000000000000000000000000008152600401611b85906132a9565b60405180910390fd5b611b9a60008383611c7f565b8060356000828254611bac919061266a565b9250508190555080603360008473ffffffffffffffffffffffffffffffffffffffff1673ffffffffffffffffffffffffffffffffffffffff1681526020019081526020016000206000828254611c02919061266a565b925050819055508173ffffffffffffffffffffffffffffffffffffffff16600073ffffffffffffffffffffffffffffffffffffffff167fddf252ad1be2c89b69c2b068fc378daa952ba7f163c4a11628f55a4df523b3ef83604051611c6791906122d9565b60405180910390a3611c7b60008383611c84565b5050565b505050565b505050565b6000819050919050565b6000819050919050565b611ca681611d82565b611ce5576040517f08c379a0000000000000000000000000000000000000000000000000000000008152600401611cdc9061333b565b60405180910390fd5b80611d127f360894a13ba1a3210667c828492db98dca3e2076cc3735a920a3ca505d382bbc60001b611c89565b60000160006101000a81548173ffffffffffffffffffffffffffffffffffffffff021916908373ffffffffffffffffffffffffffffffffffffffff16021790555050565b611d5f83611e87565b600082511180611d6c5750805b15611d7d57611d7b8383611ed6565b505b505050565b6000808273ffffffffffffffffffffffffffffffffffffffff163b119050919050565b600060019054906101000a900460ff16611df4576040517f08c379a0000000000000000000000000000000000000000000000000000000008152600401611deb9061323d565b60405180910390fd5b8160369080519060200190611e0a929190612021565b508060379080519060200190611e21929190612021565b505050565b600060019054906101000a900460ff16611e75576040517f08c379a0000000000000000000000000000000000000000000000000000000008152600401611e6c9061323d565b60405180910390fd5b611e85611e80610f61565b611861565b565b611e9081611c9d565b8073ffffffffffffffffffffffffffffffffffffffff167fbc7cd75a20ee27fd9adebab32041f755214dbc6bffa90cc0225b39da2e5c2d3b60405160405180910390a250565b6060611ee183611d82565b611f20576040517f08c379a0000000000000000000000000000000000000000000000000000000008152600401611f17906133cd565b60405180910390fd5b6000808473ffffffffffffffffffffffffffffffffffffffff1684604051611f489190613434565b600060405180830381855af49150503d8060008114611f83576040519150601f19603f3d011682016040523d82523d6000602084013e611f88565b606091505b5091509150611fb0828260405180606001604052806027815260200161344c60279139611fba565b9250505092915050565b60608315611fca5782905061201a565b600083511115611fdd5782518084602001fd5b816040517f08c379a0000000000000000000000000000000000000000000000000000000008152600401612011919061215d565b60405180910390fd5b9392505050565b82805461202d90612609565b90600052602060002090601f01602090048101928261204f5760008555612096565b82601f1061206857805160ff1916838001178555612096565b82800160010185558215612096579182015b8281111561209557825182559160200191906001019061207a565b5b5090506120a391906120a7565b5090565b5b808211156120c05760008160009055506001016120a8565b5090565b600081519050919050565b600082825260208201905092915050565b60005b838110156120fe5780820151818401526020810190506120e3565b8381111561210d576000848401525b50505050565b6000601f19601f8301169050919050565b600061212f826120c4565b61213981856120cf565b93506121498185602086016120e0565b61215281612113565b840191505092915050565b600060208201905081810360008301526121778184612124565b905092915050565b6000604051905090565b600080fd5b600080fd5b600073ffffffffffffffffffffffffffffffffffffffff82169050919050565b60006121be82612193565b9050919050565b6121ce816121b3565b81146121d957600080fd5b50565b6000813590506121eb816121c5565b92915050565b6000819050919050565b612204816121f1565b811461220f57600080fd5b50565b600081359050612221816121fb565b92915050565b6000806040838503121561223e5761223d612189565b5b600061224c858286016121dc565b925050602061225d85828601612212565b9150509250929050565b60008115159050919050565b61227c81612267565b82525050565b60006020820190506122976000830184612273565b92915050565b6000602082840312156122b3576122b2612189565b5b60006122c184828501612212565b91505092915050565b6122d3816121f1565b82525050565b60006020820190506122ee60008301846122ca565b92915050565b60008060006060848603121561230d5761230c612189565b5b600061231b868287016121dc565b935050602061232c868287016121dc565b925050604061233d86828701612212565b9150509250925092565b600060ff82169050919050565b61235d81612347565b82525050565b60006020820190506123786000830184612354565b92915050565b60006020828403121561239457612393612189565b5b60006123a2848285016121dc565b91505092915050565b600080fd5b600080fd5b7f4e487b7100000000000000000000000000000000000000000000000000000000600052604160045260246000fd5b6123ed82612113565b810181811067ffffffffffffffff8211171561240c5761240b6123b5565b5b80604052505050565b600061241f61217f565b905061242b82826123e4565b919050565b600067ffffffffffffffff82111561244b5761244a6123b5565b5b61245482612113565b9050602081019050919050565b82818337600083830152505050565b600061248361247e84612430565b612415565b90508281526020810184848401111561249f5761249e6123b0565b5b6124aa848285612461565b509392505050565b600082601f8301126124c7576124c66123ab565b5b81356124d7848260208601612470565b91505092915050565b600080604083850312156124f7576124f6612189565b5b6000612505858286016121dc565b925050602083013567ffffffffffffffff8111156125265761252561218e565b5b612532858286016124b2565b9150509250929050565b6000819050919050565b61254f8161253c565b82525050565b600060208201905061256a6000830184612546565b92915050565b612579816121b3565b82525050565b60006020820190506125946000830184612570565b92915050565b600080604083850312156125b1576125b0612189565b5b60006125bf858286016121dc565b92505060206125d0858286016121dc565b9150509250929050565b7f4e487b7100000000000000000000000000000000000000000000000000000000600052602260045260246000fd5b6000600282049050600182168061262157607f821691505b60208210811415612635576126346125da565b5b50919050565b7f4e487b7100000000000000000000000000000000000000000000000000000000600052601160045260246000fd5b6000612675826121f1565b9150612680836121f1565b9250827fffffffffffffffffffffffffffffffffffffffffffffffffffffffffffffffff038211156126b5576126b461263b565b5b828201905092915050565b7f4f776e61626c653a2063616c6c6572206973206e6f7420746865206f776e6572600082015250565b60006126f66020836120cf565b9150612701826126c0565b602082019050919050565b60006020820190508181036000830152612725816126e9565b9050919050565b7f4661696c656420617474656d707420746f206275726e20746f6b656e7320776860008201527f65726520726571756573746564206275726e20746f6b656e73206973206d6f7260208201527f65207468616e206f776e656420746f6b656e7300000000000000000000000000604082015250565b60006127ae6053836120cf565b91506127b98261272c565b606082019050919050565b600060208201905081810360008301526127dd816127a1565b9050919050565b7f46756e6374696f6e206d7573742062652063616c6c6564207468726f7567682060008201527f64656c656761746563616c6c0000000000000000000000000000000000000000602082015250565b6000612840602c836120cf565b915061284b826127e4565b604082019050919050565b6000602082019050818103600083015261286f81612833565b9050919050565b7f46756e6374696f6e206d7573742062652063616c6c6564207468726f7567682060008201527f6163746976652070726f78790000000000000000000000000000000000000000602082015250565b60006128d2602c836120cf565b91506128dd82612876565b604082019050919050565b60006020820190508181036000830152612901816128c5565b9050919050565b7f555550535570677261646561626c653a206d757374206e6f742062652063616c60008201527f6c6564207468726f7567682064656c656761746563616c6c0000000000000000602082015250565b60006129646038836120cf565b915061296f82612908565b604082019050919050565b6000602082019050818103600083015261299381612957565b9050919050565b6000819050919050565b6000819050919050565b60006129c96129c46129bf8461299a565b6129a4565b612347565b9050919050565b6129d9816129ae565b82525050565b60006020820190506129f460008301846129d0565b92915050565b7f45524332303a2064656372656173656420616c6c6f77616e63652062656c6f7760008201527f207a65726f000000000000000000000000000000000000000000000000000000602082015250565b6000612a566025836120cf565b9150612a61826129fa565b604082019050919050565b60006020820190508181036000830152612a8581612a49565b9050919050565b7f4f776e61626c653a206e6577206f776e657220697320746865207a65726f206160008201527f6464726573730000000000000000000000000000000000000000000000000000602082015250565b6000612ae86026836120cf565b9150612af382612a8c565b604082019050919050565b60006020820190508181036000830152612b1781612adb565b9050919050565b7f45524332303a20617070726f76652066726f6d20746865207a65726f2061646460008201527f7265737300000000000000000000000000000000000000000000000000000000602082015250565b6000612b7a6024836120cf565b9150612b8582612b1e565b604082019050919050565b60006020820190508181036000830152612ba981612b6d565b9050919050565b7f45524332303a20617070726f766520746f20746865207a65726f20616464726560008201527f7373000000000000000000000000000000000000000000000000000000000000602082015250565b6000612c0c6022836120cf565b9150612c1782612bb0565b604082019050919050565b60006020820190508181036000830152612c3b81612bff565b9050919050565b7f45524332303a20696e73756666696369656e7420616c6c6f77616e6365000000600082015250565b6000612c78601d836120cf565b9150612c8382612c42565b602082019050919050565b60006020820190508181036000830152612ca781612c6b565b9050919050565b7f45524332303a207472616e736665722066726f6d20746865207a65726f20616460008201527f6472657373000000000000000000000000000000000000000000000000000000602082015250565b6000612d0a6025836120cf565b9150612d1582612cae565b604082019050919050565b60006020820190508181036000830152612d3981612cfd565b9050919050565b7f45524332303a207472616e7366657220746f20746865207a65726f206164647260008201527f6573730000000000000000000000000000000000000000000000000000000000602082015250565b6000612d9c6023836120cf565b9150612da782612d40565b604082019050919050565b60006020820190508181036000830152612dcb81612d8f565b9050919050565b7f45524332303a207472616e7366657220616d6f756e742065786365656473206260008201527f616c616e63650000000000000000000000000000000000000000000000000000602082015250565b6000612e2e6026836120cf565b9150612e3982612dd2565b604082019050919050565b60006020820190508181036000830152612e5d81612e21565b9050919050565b7f45524332303a206275726e2066726f6d20746865207a65726f2061646472657360008201527f7300000000000000000000000000000000000000000000000000000000000000602082015250565b6000612ec06021836120cf565b9150612ecb82612e64565b604082019050919050565b60006020820190508181036000830152612eef81612eb3565b9050919050565b7f45524332303a206275726e20616d6f756e7420657863656564732062616c616e60008201527f6365000000000000000000000000000000000000000000000000000000000000602082015250565b6000612f526022836120cf565b9150612f5d82612ef6565b604082019050919050565b60006020820190508181036000830152612f8181612f45565b9050919050565b6000612f93826121f1565b9150612f9e836121f1565b925082821015612fb157612fb061263b565b5b828203905092915050565b612fc58161253c565b8114612fd057600080fd5b50565b600081519050612fe281612fbc565b92915050565b600060208284031215612ffe57612ffd612189565b5b600061300c84828501612fd3565b91505092915050565b7f45524331393637557067726164653a206e657720696d706c656d656e7461746960008201527f6f6e206973206e6f742055555053000000000000000000000000000000000000602082015250565b6000613071602e836120cf565b915061307c82613015565b604082019050919050565b600060208201905081810360008301526130a081613064565b9050919050565b7f45524331393637557067726164653a20756e737570706f727465642070726f7860008201527f6961626c65555549440000000000000000000000000000000000000000000000602082015250565b60006131036029836120cf565b915061310e826130a7565b604082019050919050565b60006020820190508181036000830152613132816130f6565b9050919050565b7f496e697469616c697a61626c653a20636f6e747261637420697320616c72656160008201527f647920696e697469616c697a6564000000000000000000000000000000000000602082015250565b6000613195602e836120cf565b91506131a082613139565b604082019050919050565b600060208201905081810360008301526131c481613188565b9050919050565b7f496e697469616c697a61626c653a20636f6e7472616374206973206e6f74206960008201527f6e697469616c697a696e67000000000000000000000000000000000000000000602082015250565b6000613227602b836120cf565b9150613232826131cb565b604082019050919050565b600060208201905081810360008301526132568161321a565b9050919050565b7f45524332303a206d696e7420746f20746865207a65726f206164647265737300600082015250565b6000613293601f836120cf565b915061329e8261325d565b602082019050919050565b600060208201905081810360008301526132c281613286565b9050919050565b7f455243313936373a206e657720696d706c656d656e746174696f6e206973206e60008201527f6f74206120636f6e747261637400000000000000000000000000000000000000602082015250565b6000613325602d836120cf565b9150613330826132c9565b604082019050919050565b6000602082019050818103600083015261335481613318565b9050919050565b7f416464726573733a2064656c65676174652063616c6c20746f206e6f6e2d636f60008201527f6e74726163740000000000000000000000000000000000000000000000000000602082015250565b60006133b76026836120cf565b91506133c28261335b565b604082019050919050565b600060208201905081810360008301526133e6816133aa565b9050919050565b600081519050919050565b600081905092915050565b600061340e826133ed565b61341881856133f8565b93506134288185602086016120e0565b80840191505092915050565b60006134408284613403565b91508190509291505056fe416464726573733a206c6f772d6c6576656c2064656c65676174652063616c6c206661696c6564a2646970667358221220fcc94e21686db0105367d19c365607af4924ac9fa4785229d29b7d653b531f7b64736f6c634300080a0033",
  "linkReferences": {},
  "deployedLinkReferences": {}
}