{
  "_format": "hh-sol-artifact-1",
  "contractName": "MyHardhatToken",
  "sourceName": "contracts/MyHardhatToken.sol",
  "abi": [
    {
      "inputs": [],
      "stateMutability": "nonpayable",
      "type": "constructor"
    },
    {
      "anonymous": false,
      "inputs": [
        {
          "indexed": false,
          "internalType": "address",
          "name": "previousAdmin",
          "type": "address"
        },
        {
          "indexed": false,
          "internalType": "address",
          "name": "newAdmin",
          "type": "address"
        }
      ],
      "name": "AdminChanged",
      "type": "event"
    },
    {
      "anonymous": false,
      "inputs": [
        {
          "indexed": true,
          "internalType": "address",
          "name": "owner",
          "type": "address"
        },
        {
          "indexed": true,
          "internalType": "address",
          "name": "spender",
          "type": "address"
        },
        {
          "indexed": false,
          "internalType": "uint256",
          "name": "value",
          "type": "uint256"
        }
      ],
      "name": "Approval",
      "type": "event"
    },
    {
      "anonymous": false,
      "inputs": [
        {
          "indexed": true,
          "internalType": "address",
          "name": "beacon",
          "type": "address"
        }
      ],
      "name": "BeaconUpgraded",
      "type": "event"
    },
    {
      "anonymous": false,
      "inputs": [
        {
          "indexed": false,
          "internalType": "uint8",
          "name": "version",
          "type": "uint8"
        }
      ],
      "name": "Initialized",
      "type": "event"
    },
    {
      "anonymous": false,
      "inputs": [
        {
          "indexed": true,
          "internalType": "address",
          "name": "previousOwner",
          "type": "address"
        },
        {
          "indexed": true,
          "internalType": "address",
          "name": "newOwner",
          "type": "address"
        }
      ],
      "name": "OwnershipTransferred",
      "type": "event"
    },
    {
      "anonymous": false,
      "inputs": [
        {
          "indexed": true,
          "internalType": "address",
          "name": "from",
          "type": "address"
        },
        {
          "indexed": true,
          "internalType": "address",
          "name": "to",
          "type": "address"
        },
        {
          "indexed": false,
          "internalType": "uint256",
          "name": "value",
          "type": "uint256"
        }
      ],
      "name": "Transfer",
      "type": "event"
    },
    {
      "anonymous": false,
      "inputs": [
        {
          "indexed": true,
          "internalType": "address",
          "name": "implementation",
          "type": "address"
        }
      ],
      "name": "Upgraded",
      "type": "event"
    },
    {
      "inputs": [
        {
          "internalType": "address",
          "name": "owner",
          "type": "address"
        },
        {
          "internalType": "address",
          "name": "spender",
          "type": "address"
        }
      ],
      "name": "allowance",
      "outputs": [
        {
          "internalType": "uint256",
          "name": "",
          "type": "uint256"
        }
      ],
      "stateMutability": "view",
      "type": "function"
    },
    {
      "inputs": [
        {
          "internalType": "address",
          "name": "spender",
          "type": "address"
        },
        {
          "internalType": "uint256",
          "name": "amount",
          "type": "uint256"
        }
      ],
      "name": "approve",
      "outputs": [
        {
          "internalType": "bool",
          "name": "",
          "type": "bool"
        }
      ],
      "stateMutability": "nonpayable",
      "type": "function"
    },
    {
      "inputs": [
        {
          "internalType": "address",
          "name": "account",
          "type": "address"
        }
      ],
      "name": "balanceOf",
      "outputs": [
        {
          "internalType": "uint256",
          "name": "",
          "type": "uint256"
        }
      ],
      "stateMutability": "view",
      "type": "function"
    },
    {
      "inputs": [],
      "name": "decimals",
      "outputs": [
        {
          "internalType": "uint8",
          "name": "",
          "type": "uint8"
        }
      ],
      "stateMutability": "view",
      "type": "function"
    },
    {
      "inputs": [
        {
          "internalType": "address",
          "name": "spender",
          "type": "address"
        },
        {
          "internalType": "uint256",
          "name": "subtractedValue",
          "type": "uint256"
        }
      ],
      "name": "decreaseAllowance",
      "outputs": [
        {
          "internalType": "bool",
          "name": "",
          "type": "bool"
        }
      ],
      "stateMutability": "nonpayable",
      "type": "function"
    },
    {
      "inputs": [
        {
          "internalType": "address",
          "name": "spender",
          "type": "address"
        },
        {
          "internalType": "uint256",
          "name": "addedValue",
          "type": "uint256"
        }
      ],
      "name": "increaseAllowance",
      "outputs": [
        {
          "internalType": "bool",
          "name": "",
          "type": "bool"
        }
      ],
      "stateMutability": "nonpayable",
      "type": "function"
    },
    {
      "inputs": [],
      "name": "initialize",
      "outputs": [],
      "stateMutability": "nonpayable",
      "type": "function"
    },
    {
      "inputs": [],
      "name": "name",
      "outputs": [
        {
          "internalType": "string",
          "name": "",
          "type": "string"
        }
      ],
      "stateMutability": "view",
      "type": "function"
    },
    {
      "inputs": [],
      "name": "owner",
      "outputs": [
        {
          "internalType": "address",
          "name": "",
          "type": "address"
        }
      ],
      "stateMutability": "view",
      "type": "function"
    },
    {
      "inputs": [],
      "name": "proxiableUUID",
      "outputs": [
        {
          "internalType": "bytes32",
          "name": "",
          "type": "bytes32"
        }
      ],
      "stateMutability": "view",
      "type": "function"
    },
    {
      "inputs": [],
      "name": "renounceOwnership",
      "outputs": [],
      "stateMutability": "nonpayable",
      "type": "function"
    },
    {
      "inputs": [],
      "name": "symbol",
      "outputs": [
        {
          "internalType": "string",
          "name": "",
          "type": "string"
        }
      ],
      "stateMutability": "view",
      "type": "function"
    },
    {
      "inputs": [],
      "name": "totalSupply",
      "outputs": [
        {
          "internalType": "uint256",
          "name": "",
          "type": "uint256"
        }
      ],
      "stateMutability": "view",
      "type": "function"
    },
    {
      "inputs": [
        {
          "internalType": "address",
          "name": "to",
          "type": "address"
        },
        {
          "internalType": "uint256",
          "name": "amount",
          "type": "uint256"
        }
      ],
      "name": "transfer",
      "outputs": [
        {
          "internalType": "bool",
          "name": "",
          "type": "bool"
        }
      ],
      "stateMutability": "nonpayable",
      "type": "function"
    },
    {
      "inputs": [
        {
          "internalType": "address",
          "name": "from",
          "type": "address"
        },
        {
          "internalType": "address",
          "name": "to",
          "type": "address"
        },
        {
          "internalType": "uint256",
          "name": "amount",
          "type": "uint256"
        }
      ],
      "name": "transferFrom",
      "outputs": [
        {
          "internalType": "bool",
          "name": "",
          "type": "bool"
        }
      ],
      "stateMutability": "nonpayable",
      "type": "function"
    },
    {
      "inputs": [
        {
          "internalType": "address",
          "name": "newOwner",
          "type": "address"
        }
      ],
      "name": "transferOwnership",
      "outputs": [],
      "stateMutability": "nonpayable",
      "type": "function"
    },
    {
      "inputs": [
        {
          "internalType": "address",
          "name": "newImplementation",
          "type": "address"
        }
      ],
      "name": "upgradeTo",
      "outputs": [],
      "stateMutability": "nonpayable",
      "type": "function"
    },
    {
      "inputs": [
        {
          "internalType": "address",
          "name": "newImplementation",
          "type": "address"
        },
        {
          "internalType": "bytes",
          "name": "data",
          "type": "bytes"
        }
      ],
      "name": "upgradeToAndCall",
      "outputs": [],
      "stateMutability": "payable",
      "type": "function"
    },
    {
      "inputs": [],
      "name": "val",
      "outputs": [
        {
          "internalType": "uint256",
          "name": "",
          "type": "uint256"
        }
      ],
      "stateMutability": "view",
      "type": "function"
    }
  ],
  "bytecode": "0x60a06040523073ffffffffffffffffffffffffffffffffffffffff1660809073ffffffffffffffffffffffffffffffffffffffff168152503480156200004457600080fd5b506000620000596001620000e160201b60201c565b905080156200007e576001600060016101000a81548160ff0219169083151502179055505b8015620000da5760008060016101000a81548160ff0219169083151502179055507f7f26b83ff96e1f2b6a682f133852f6798a09c465da95921460cefb38474024986001604051620000d1919062000264565b60405180910390a15b506200032a565b60008060019054906101000a900460ff16156200016b5760018260ff161480156200011f57506200011d30620001e760201b62000e091760201c565b155b62000161576040517f08c379a0000000000000000000000000000000000000000000000000000000008152600401620001589062000308565b60405180910390fd5b60009050620001e2565b8160ff1660008054906101000a900460ff1660ff1610620001c3576040517f08c379a0000000000000000000000000000000000000000000000000000000008152600401620001ba9062000308565b60405180910390fd5b816000806101000a81548160ff021916908360ff160217905550600190505b919050565b6000808273ffffffffffffffffffffffffffffffffffffffff163b119050919050565b6000819050919050565b600060ff82169050919050565b6000819050919050565b60006200024c6200024662000240846200020a565b62000221565b62000214565b9050919050565b6200025e816200022b565b82525050565b60006020820190506200027b600083018462000253565b92915050565b600082825260208201905092915050565b7f496e697469616c697a61626c653a20636f6e747261637420697320616c72656160008201527f647920696e697469616c697a6564000000000000000000000000000000000000602082015250565b6000620002f0602e8362000281565b9150620002fd8262000292565b604082019050919050565b600060208201905081810360008301526200032381620002e1565b9050919050565b608051612f3a6200036260003960008181610586015281816106150152818161074c015281816107db015261088b0152612f3a6000f3fe6080604052600436106101145760003560e01c806352d1902d116100a057806395d89b411161006457806395d89b4114610382578063a457c2d7146103ad578063a9059cbb146103ea578063dd62ed3e14610427578063f2fde38b1461046457610114565b806352d1902d146102c157806370a08231146102ec578063715018a6146103295780638129fc1c146103405780638da5cb5b1461035757610114565b8063313ce567116100e7578063313ce567146101e95780633659cfe614610214578063395093511461023d5780633c6bb4361461027a5780634f1ef286146102a557610114565b806306fdde0314610119578063095ea7b31461014457806318160ddd1461018157806323b872dd146101ac575b600080fd5b34801561012557600080fd5b5061012e61048d565b60405161013b9190611e2c565b60405180910390f35b34801561015057600080fd5b5061016b60048036038101906101669190611ef6565b61051f565b6040516101789190611f51565b60405180910390f35b34801561018d57600080fd5b50610196610542565b6040516101a39190611f7b565b60405180910390f35b3480156101b857600080fd5b506101d360048036038101906101ce9190611f96565b61054c565b6040516101e09190611f51565b60405180910390f35b3480156101f557600080fd5b506101fe61057b565b60405161020b9190612005565b60405180910390f35b34801561022057600080fd5b5061023b60048036038101906102369190612020565b610584565b005b34801561024957600080fd5b50610264600480360381019061025f9190611ef6565b61070d565b6040516102719190611f51565b60405180910390f35b34801561028657600080fd5b5061028f610744565b60405161029c9190611f7b565b60405180910390f35b6102bf60048036038101906102ba9190612182565b61074a565b005b3480156102cd57600080fd5b506102d6610887565b6040516102e391906121f7565b60405180910390f35b3480156102f857600080fd5b50610313600480360381019061030e9190612020565b610940565b6040516103209190611f7b565b60405180910390f35b34801561033557600080fd5b5061033e610989565b005b34801561034c57600080fd5b50610355610a11565b005b34801561036357600080fd5b5061036c610b34565b6040516103799190612221565b60405180910390f35b34801561038e57600080fd5b50610397610b5e565b6040516103a49190611e2c565b60405180910390f35b3480156103b957600080fd5b506103d460048036038101906103cf9190611ef6565b610bf0565b6040516103e19190611f51565b60405180910390f35b3480156103f657600080fd5b50610411600480360381019061040c9190611ef6565b610c67565b60405161041e9190611f51565b60405180910390f35b34801561043357600080fd5b5061044e6004803603810190610449919061223c565b610c8a565b60405161045b9190611f7b565b60405180910390f35b34801561047057600080fd5b5061048b60048036038101906104869190612020565b610d11565b005b60606036805461049c906122ab565b80601f01602080910402602001604051908101604052809291908181526020018280546104c8906122ab565b80156105155780601f106104ea57610100808354040283529160200191610515565b820191906000526020600020905b8154815290600101906020018083116104f857829003601f168201915b5050505050905090565b60008061052a610e2c565b9050610537818585610e34565b600191505092915050565b6000603554905090565b600080610557610e2c565b9050610564858285610fff565b61056f85858561108b565b60019150509392505050565b60006012905090565b7f000000000000000000000000000000000000000000000000000000000000000073ffffffffffffffffffffffffffffffffffffffff163073ffffffffffffffffffffffffffffffffffffffff161415610613576040517f08c379a000000000000000000000000000000000000000000000000000000000815260040161060a9061234f565b60405180910390fd5b7f000000000000000000000000000000000000000000000000000000000000000073ffffffffffffffffffffffffffffffffffffffff1661065261130f565b73ffffffffffffffffffffffffffffffffffffffff16146106a8576040517f08c379a000000000000000000000000000000000000000000000000000000000815260040161069f906123e1565b60405180910390fd5b6106b181611366565b61070a81600067ffffffffffffffff8111156106d0576106cf612057565b5b6040519080825280601f01601f1916602001820160405280156107025781602001600182028036833780820191505090505b5060006113e5565b50565b600080610718610e2c565b905061073981858561072a8589610c8a565b6107349190612430565b610e34565b600191505092915050565b60fb5481565b7f000000000000000000000000000000000000000000000000000000000000000073ffffffffffffffffffffffffffffffffffffffff163073ffffffffffffffffffffffffffffffffffffffff1614156107d9576040517f08c379a00000000000000000000000000000000000000000000000000000000081526004016107d09061234f565b60405180910390fd5b7f000000000000000000000000000000000000000000000000000000000000000073ffffffffffffffffffffffffffffffffffffffff1661081861130f565b73ffffffffffffffffffffffffffffffffffffffff161461086e576040517f08c379a0000000000000000000000000000000000000000000000000000000008152600401610865906123e1565b60405180910390fd5b61087782611366565b610883828260016113e5565b5050565b60007f000000000000000000000000000000000000000000000000000000000000000073ffffffffffffffffffffffffffffffffffffffff163073ffffffffffffffffffffffffffffffffffffffff1614610917576040517f08c379a000000000000000000000000000000000000000000000000000000000815260040161090e906124f8565b60405180910390fd5b7f360894a13ba1a3210667c828492db98dca3e2076cc3735a920a3ca505d382bbc60001b905090565b6000603360008373ffffffffffffffffffffffffffffffffffffffff1673ffffffffffffffffffffffffffffffffffffffff168152602001908152602001600020549050919050565b610991610e2c565b73ffffffffffffffffffffffffffffffffffffffff166109af610b34565b73ffffffffffffffffffffffffffffffffffffffff1614610a05576040517f08c379a00000000000000000000000000000000000000000000000000000000081526004016109fc90612564565b60405180910390fd5b610a0f6000611553565b565b6000610a1d6001611619565b90508015610a41576001600060016101000a81548160ff0219169083151502179055505b610ab56040518060400160405280600e81526020017f4d7948617264686174546f6b656e0000000000000000000000000000000000008152506040518060400160405280600381526020017f4d48540000000000000000000000000000000000000000000000000000000000815250611709565b610abd611766565b610ac56117bf565b610ad8336806aaf7c8516d0c0000611810565b8015610b315760008060016101000a81548160ff0219169083151502179055507f7f26b83ff96e1f2b6a682f133852f6798a09c465da95921460cefb38474024986001604051610b2891906125c9565b60405180910390a15b50565b600060c960009054906101000a900473ffffffffffffffffffffffffffffffffffffffff16905090565b606060378054610b6d906122ab565b80601f0160208091040260200160405190810160405280929190818152602001828054610b99906122ab565b8015610be65780601f10610bbb57610100808354040283529160200191610be6565b820191906000526020600020905b815481529060010190602001808311610bc957829003601f168201915b5050505050905090565b600080610bfb610e2c565b90506000610c098286610c8a565b905083811015610c4e576040517f08c379a0000000000000000000000000000000000000000000000000000000008152600401610c4590612656565b60405180910390fd5b610c5b8286868403610e34565b60019250505092915050565b600080610c72610e2c565b9050610c7f81858561108b565b600191505092915050565b6000603460008473ffffffffffffffffffffffffffffffffffffffff1673ffffffffffffffffffffffffffffffffffffffff16815260200190815260200160002060008373ffffffffffffffffffffffffffffffffffffffff1673ffffffffffffffffffffffffffffffffffffffff16815260200190815260200160002054905092915050565b610d19610e2c565b73ffffffffffffffffffffffffffffffffffffffff16610d37610b34565b73ffffffffffffffffffffffffffffffffffffffff1614610d8d576040517f08c379a0000000000000000000000000000000000000000000000000000000008152600401610d8490612564565b60405180910390fd5b600073ffffffffffffffffffffffffffffffffffffffff168173ffffffffffffffffffffffffffffffffffffffff161415610dfd576040517f08c379a0000000000000000000000000000000000000000000000000000000008152600401610df4906126e8565b60405180910390fd5b610e0681611553565b50565b6000808273ffffffffffffffffffffffffffffffffffffffff163b119050919050565b600033905090565b600073ffffffffffffffffffffffffffffffffffffffff168373ffffffffffffffffffffffffffffffffffffffff161415610ea4576040517f08c379a0000000000000000000000000000000000000000000000000000000008152600401610e9b9061277a565b60405180910390fd5b600073ffffffffffffffffffffffffffffffffffffffff168273ffffffffffffffffffffffffffffffffffffffff161415610f14576040517f08c379a0000000000000000000000000000000000000000000000000000000008152600401610f0b9061280c565b60405180910390fd5b80603460008573ffffffffffffffffffffffffffffffffffffffff1673ffffffffffffffffffffffffffffffffffffffff16815260200190815260200160002060008473ffffffffffffffffffffffffffffffffffffffff1673ffffffffffffffffffffffffffffffffffffffff168152602001908152602001600020819055508173ffffffffffffffffffffffffffffffffffffffff168373ffffffffffffffffffffffffffffffffffffffff167f8c5be1e5ebec7d5bd14f71427d1e84f3dd0314c0f7b2291e5b200ac8c7c3b92583604051610ff29190611f7b565b60405180910390a3505050565b600061100b8484610c8a565b90507fffffffffffffffffffffffffffffffffffffffffffffffffffffffffffffffff81146110855781811015611077576040517f08c379a000000000000000000000000000000000000000000000000000000000815260040161106e90612878565b60405180910390fd5b6110848484848403610e34565b5b50505050565b600073ffffffffffffffffffffffffffffffffffffffff168373ffffffffffffffffffffffffffffffffffffffff1614156110fb576040517f08c379a00000000000000000000000000000000000000000000000000000000081526004016110f29061290a565b60405180910390fd5b600073ffffffffffffffffffffffffffffffffffffffff168273ffffffffffffffffffffffffffffffffffffffff16141561116b576040517f08c379a00000000000000000000000000000000000000000000000000000000081526004016111629061299c565b60405180910390fd5b611176838383611971565b6000603360008573ffffffffffffffffffffffffffffffffffffffff1673ffffffffffffffffffffffffffffffffffffffff168152602001908152602001600020549050818110156111fd576040517f08c379a00000000000000000000000000000000000000000000000000000000081526004016111f490612a2e565b60405180910390fd5b818103603360008673ffffffffffffffffffffffffffffffffffffffff1673ffffffffffffffffffffffffffffffffffffffff1681526020019081526020016000208190555081603360008573ffffffffffffffffffffffffffffffffffffffff1673ffffffffffffffffffffffffffffffffffffffff16815260200190815260200160002060008282546112929190612430565b925050819055508273ffffffffffffffffffffffffffffffffffffffff168473ffffffffffffffffffffffffffffffffffffffff167fddf252ad1be2c89b69c2b068fc378daa952ba7f163c4a11628f55a4df523b3ef846040516112f69190611f7b565b60405180910390a3611309848484611976565b50505050565b600061133d7f360894a13ba1a3210667c828492db98dca3e2076cc3735a920a3ca505d382bbc60001b61197b565b60000160009054906101000a900473ffffffffffffffffffffffffffffffffffffffff16905090565b61136e610e2c565b73ffffffffffffffffffffffffffffffffffffffff1661138c610b34565b73ffffffffffffffffffffffffffffffffffffffff16146113e2576040517f08c379a00000000000000000000000000000000000000000000000000000000081526004016113d990612564565b60405180910390fd5b50565b6114117f4910fdfa16fed3260ed0e7147f7cc6da11a60208b5b9406d12a635614ffd914360001b611985565b60000160009054906101000a900460ff1615611435576114308361198f565b61154e565b8273ffffffffffffffffffffffffffffffffffffffff166352d1902d6040518163ffffffff1660e01b8152600401602060405180830381865afa92505050801561149d57506040513d601f19601f8201168201806040525081019061149a9190612a7a565b60015b6114dc576040517f08c379a00000000000000000000000000000000000000000000000000000000081526004016114d390612b19565b60405180910390fd5b7f360894a13ba1a3210667c828492db98dca3e2076cc3735a920a3ca505d382bbc60001b8114611541576040517f08c379a000000000000000000000000000000000000000000000000000000000815260040161153890612bab565b60405180910390fd5b5061154d838383611a48565b5b505050565b600060c960009054906101000a900473ffffffffffffffffffffffffffffffffffffffff1690508160c960006101000a81548173ffffffffffffffffffffffffffffffffffffffff021916908373ffffffffffffffffffffffffffffffffffffffff1602179055508173ffffffffffffffffffffffffffffffffffffffff168173ffffffffffffffffffffffffffffffffffffffff167f8be0079c531659141344cd1fd0a4f28419497f9722a3daafe3b4186f6b6457e060405160405180910390a35050565b60008060019054906101000a900460ff16156116905760018260ff16148015611648575061164630610e09565b155b611687576040517f08c379a000000000000000000000000000000000000000000000000000000000815260040161167e90612c3d565b60405180910390fd5b60009050611704565b8160ff1660008054906101000a900460ff1660ff16106116e5576040517f08c379a00000000000000000000000000000000000000000000000000000000081526004016116dc90612c3d565b60405180910390fd5b816000806101000a81548160ff021916908360ff160217905550600190505b919050565b600060019054906101000a900460ff16611758576040517f08c379a000000000000000000000000000000000000000000000000000000000815260040161174f90612ccf565b60405180910390fd5b6117628282611a74565b5050565b600060019054906101000a900460ff166117b5576040517f08c379a00000000000000000000000000000000000000000000000000000000081526004016117ac90612ccf565b60405180910390fd5b6117bd611af5565b565b600060019054906101000a900460ff1661180e576040517f08c379a000000000000000000000000000000000000000000000000000000000815260040161180590612ccf565b60405180910390fd5b565b600073ffffffffffffffffffffffffffffffffffffffff168273ffffffffffffffffffffffffffffffffffffffff161415611880576040517f08c379a000000000000000000000000000000000000000000000000000000000815260040161187790612d3b565b60405180910390fd5b61188c60008383611971565b806035600082825461189e9190612430565b9250508190555080603360008473ffffffffffffffffffffffffffffffffffffffff1673ffffffffffffffffffffffffffffffffffffffff16815260200190815260200160002060008282546118f49190612430565b925050819055508173ffffffffffffffffffffffffffffffffffffffff16600073ffffffffffffffffffffffffffffffffffffffff167fddf252ad1be2c89b69c2b068fc378daa952ba7f163c4a11628f55a4df523b3ef836040516119599190611f7b565b60405180910390a361196d60008383611976565b5050565b505050565b505050565b6000819050919050565b6000819050919050565b61199881610e09565b6119d7576040517f08c379a00000000000000000000000000000000000000000000000000000000081526004016119ce90612dcd565b60405180910390fd5b80611a047f360894a13ba1a3210667c828492db98dca3e2076cc3735a920a3ca505d382bbc60001b61197b565b60000160006101000a81548173ffffffffffffffffffffffffffffffffffffffff021916908373ffffffffffffffffffffffffffffffffffffffff16021790555050565b611a5183611b56565b600082511180611a5e5750805b15611a6f57611a6d8383611ba5565b505b505050565b600060019054906101000a900460ff16611ac3576040517f08c379a0000000000000000000000000000000000000000000000000000000008152600401611aba90612ccf565b60405180910390fd5b8160369080519060200190611ad9929190611cf0565b508060379080519060200190611af0929190611cf0565b505050565b600060019054906101000a900460ff16611b44576040517f08c379a0000000000000000000000000000000000000000000000000000000008152600401611b3b90612ccf565b60405180910390fd5b611b54611b4f610e2c565b611553565b565b611b5f8161198f565b8073ffffffffffffffffffffffffffffffffffffffff167fbc7cd75a20ee27fd9adebab32041f755214dbc6bffa90cc0225b39da2e5c2d3b60405160405180910390a250565b6060611bb083610e09565b611bef576040517f08c379a0000000000000000000000000000000000000000000000000000000008152600401611be690612e5f565b60405180910390fd5b6000808473ffffffffffffffffffffffffffffffffffffffff1684604051611c179190612ec6565b600060405180830381855af49150503d8060008114611c52576040519150601f19603f3d011682016040523d82523d6000602084013e611c57565b606091505b5091509150611c7f8282604051806060016040528060278152602001612ede60279139611c89565b9250505092915050565b60608315611c9957829050611ce9565b600083511115611cac5782518084602001fd5b816040517f08c379a0000000000000000000000000000000000000000000000000000000008152600401611ce09190611e2c565b60405180910390fd5b9392505050565b828054611cfc906122ab565b90600052602060002090601f016020900481019282611d1e5760008555611d65565b82601f10611d3757805160ff1916838001178555611d65565b82800160010185558215611d65579182015b82811115611d64578251825591602001919060010190611d49565b5b509050611d729190611d76565b5090565b5b80821115611d8f576000816000905550600101611d77565b5090565b600081519050919050565b600082825260208201905092915050565b60005b83811015611dcd578082015181840152602081019050611db2565b83811115611ddc576000848401525b50505050565b6000601f19601f8301169050919050565b6000611dfe82611d93565b611e088185611d9e565b9350611e18818560208601611daf565b611e2181611de2565b840191505092915050565b60006020820190508181036000830152611e468184611df3565b905092915050565b6000604051905090565b600080fd5b600080fd5b600073ffffffffffffffffffffffffffffffffffffffff82169050919050565b6000611e8d82611e62565b9050919050565b611e9d81611e82565b8114611ea857600080fd5b50565b600081359050611eba81611e94565b92915050565b6000819050919050565b611ed381611ec0565b8114611ede57600080fd5b50565b600081359050611ef081611eca565b92915050565b60008060408385031215611f0d57611f0c611e58565b5b6000611f1b85828601611eab565b9250506020611f2c85828601611ee1565b9150509250929050565b60008115159050919050565b611f4b81611f36565b82525050565b6000602082019050611f666000830184611f42565b92915050565b611f7581611ec0565b82525050565b6000602082019050611f906000830184611f6c565b92915050565b600080600060608486031215611faf57611fae611e58565b5b6000611fbd86828701611eab565b9350506020611fce86828701611eab565b9250506040611fdf86828701611ee1565b9150509250925092565b600060ff82169050919050565b611fff81611fe9565b82525050565b600060208201905061201a6000830184611ff6565b92915050565b60006020828403121561203657612035611e58565b5b600061204484828501611eab565b91505092915050565b600080fd5b600080fd5b7f4e487b7100000000000000000000000000000000000000000000000000000000600052604160045260246000fd5b61208f82611de2565b810181811067ffffffffffffffff821117156120ae576120ad612057565b5b80604052505050565b60006120c1611e4e565b90506120cd8282612086565b919050565b600067ffffffffffffffff8211156120ed576120ec612057565b5b6120f682611de2565b9050602081019050919050565b82818337600083830152505050565b6000612125612120846120d2565b6120b7565b90508281526020810184848401111561214157612140612052565b5b61214c848285612103565b509392505050565b600082601f8301126121695761216861204d565b5b8135612179848260208601612112565b91505092915050565b6000806040838503121561219957612198611e58565b5b60006121a785828601611eab565b925050602083013567ffffffffffffffff8111156121c8576121c7611e5d565b5b6121d485828601612154565b9150509250929050565b6000819050919050565b6121f1816121de565b82525050565b600060208201905061220c60008301846121e8565b92915050565b61221b81611e82565b82525050565b60006020820190506122366000830184612212565b92915050565b6000806040838503121561225357612252611e58565b5b600061226185828601611eab565b925050602061227285828601611eab565b9150509250929050565b7f4e487b7100000000000000000000000000000000000000000000000000000000600052602260045260246000fd5b600060028204905060018216806122c357607f821691505b602082108114156122d7576122d661227c565b5b50919050565b7f46756e6374696f6e206d7573742062652063616c6c6564207468726f7567682060008201527f64656c656761746563616c6c0000000000000000000000000000000000000000602082015250565b6000612339602c83611d9e565b9150612344826122dd565b604082019050919050565b600060208201905081810360008301526123688161232c565b9050919050565b7f46756e6374696f6e206d7573742062652063616c6c6564207468726f7567682060008201527f6163746976652070726f78790000000000000000000000000000000000000000602082015250565b60006123cb602c83611d9e565b91506123d68261236f565b604082019050919050565b600060208201905081810360008301526123fa816123be565b9050919050565b7f4e487b7100000000000000000000000000000000000000000000000000000000600052601160045260246000fd5b600061243b82611ec0565b915061244683611ec0565b9250827fffffffffffffffffffffffffffffffffffffffffffffffffffffffffffffffff0382111561247b5761247a612401565b5b828201905092915050565b7f555550535570677261646561626c653a206d757374206e6f742062652063616c60008201527f6c6564207468726f7567682064656c656761746563616c6c0000000000000000602082015250565b60006124e2603883611d9e565b91506124ed82612486565b604082019050919050565b60006020820190508181036000830152612511816124d5565b9050919050565b7f4f776e61626c653a2063616c6c6572206973206e6f7420746865206f776e6572600082015250565b600061254e602083611d9e565b915061255982612518565b602082019050919050565b6000602082019050818103600083015261257d81612541565b9050919050565b6000819050919050565b6000819050919050565b60006125b36125ae6125a984612584565b61258e565b611fe9565b9050919050565b6125c381612598565b82525050565b60006020820190506125de60008301846125ba565b92915050565b7f45524332303a2064656372656173656420616c6c6f77616e63652062656c6f7760008201527f207a65726f000000000000000000000000000000000000000000000000000000602082015250565b6000612640602583611d9e565b915061264b826125e4565b604082019050919050565b6000602082019050818103600083015261266f81612633565b9050919050565b7f4f776e61626c653a206e6577206f776e657220697320746865207a65726f206160008201527f6464726573730000000000000000000000000000000000000000000000000000602082015250565b60006126d2602683611d9e565b91506126dd82612676565b604082019050919050565b60006020820190508181036000830152612701816126c5565b9050919050565b7f45524332303a20617070726f76652066726f6d20746865207a65726f2061646460008201527f7265737300000000000000000000000000000000000000000000000000000000602082015250565b6000612764602483611d9e565b915061276f82612708565b604082019050919050565b6000602082019050818103600083015261279381612757565b9050919050565b7f45524332303a20617070726f766520746f20746865207a65726f20616464726560008201527f7373000000000000000000000000000000000000000000000000000000000000602082015250565b60006127f6602283611d9e565b91506128018261279a565b604082019050919050565b60006020820190508181036000830152612825816127e9565b9050919050565b7f45524332303a20696e73756666696369656e7420616c6c6f77616e6365000000600082015250565b6000612862601d83611d9e565b915061286d8261282c565b602082019050919050565b6000602082019050818103600083015261289181612855565b9050919050565b7f45524332303a207472616e736665722066726f6d20746865207a65726f20616460008201527f6472657373000000000000000000000000000000000000000000000000000000602082015250565b60006128f4602583611d9e565b91506128ff82612898565b604082019050919050565b60006020820190508181036000830152612923816128e7565b9050919050565b7f45524332303a207472616e7366657220746f20746865207a65726f206164647260008201527f6573730000000000000000000000000000000000000000000000000000000000602082015250565b6000612986602383611d9e565b91506129918261292a565b604082019050919050565b600060208201905081810360008301526129b581612979565b9050919050565b7f45524332303a207472616e7366657220616d6f756e742065786365656473206260008201527f616c616e63650000000000000000000000000000000000000000000000000000602082015250565b6000612a18602683611d9e565b9150612a23826129bc565b604082019050919050565b60006020820190508181036000830152612a4781612a0b565b9050919050565b612a57816121de565b8114612a6257600080fd5b50565b600081519050612a7481612a4e565b92915050565b600060208284031215612a9057612a8f611e58565b5b6000612a9e84828501612a65565b91505092915050565b7f45524331393637557067726164653a206e657720696d706c656d656e7461746960008201527f6f6e206973206e6f742055555053000000000000000000000000000000000000602082015250565b6000612b03602e83611d9e565b9150612b0e82612aa7565b604082019050919050565b60006020820190508181036000830152612b3281612af6565b9050919050565b7f45524331393637557067726164653a20756e737570706f727465642070726f7860008201527f6961626c65555549440000000000000000000000000000000000000000000000602082015250565b6000612b95602983611d9e565b9150612ba082612b39565b604082019050919050565b60006020820190508181036000830152612bc481612b88565b9050919050565b7f496e697469616c697a61626c653a20636f6e747261637420697320616c72656160008201527f647920696e697469616c697a6564000000000000000000000000000000000000602082015250565b6000612c27602e83611d9e565b9150612c3282612bcb565b604082019050919050565b60006020820190508181036000830152612c5681612c1a565b9050919050565b7f496e697469616c697a61626c653a20636f6e7472616374206973206e6f74206960008201527f6e697469616c697a696e67000000000000000000000000000000000000000000602082015250565b6000612cb9602b83611d9e565b9150612cc482612c5d565b604082019050919050565b60006020820190508181036000830152612ce881612cac565b9050919050565b7f45524332303a206d696e7420746f20746865207a65726f206164647265737300600082015250565b6000612d25601f83611d9e565b9150612d3082612cef565b602082019050919050565b60006020820190508181036000830152612d5481612d18565b9050919050565b7f455243313936373a206e657720696d706c656d656e746174696f6e206973206e60008201527f6f74206120636f6e747261637400000000000000000000000000000000000000602082015250565b6000612db7602d83611d9e565b9150612dc282612d5b565b604082019050919050565b60006020820190508181036000830152612de681612daa565b9050919050565b7f416464726573733a2064656c65676174652063616c6c20746f206e6f6e2d636f60008201527f6e74726163740000000000000000000000000000000000000000000000000000602082015250565b6000612e49602683611d9e565b9150612e5482612ded565b604082019050919050565b60006020820190508181036000830152612e7881612e3c565b9050919050565b600081519050919050565b600081905092915050565b6000612ea082612e7f565b612eaa8185612e8a565b9350612eba818560208601611daf565b80840191505092915050565b6000612ed28284612e95565b91508190509291505056fe416464726573733a206c6f772d6c6576656c2064656c65676174652063616c6c206661696c6564a26469706673582212208ec5116559cebe5707c5a10f968609d2047e67cbd2624e2a508c01df698473fc64736f6c634300080a0033",
  "linkReferences": {},
  "deployedLinkReferences": {}
}