{
  "_format": "hh-sol-artifact-1",
  "contractName": "MyHardhatTokenNFT",
  "sourceName": "contracts/MyHardhatToken.sol",
  "abi": [
    {
      "inputs": [],
      "stateMutability": "nonpayable",
      "type": "constructor"
    },
    {
      "anonymous": false,
      "inputs": [
        {
          "indexed": false,
          "internalType": "address",
          "name": "previousAdmin",
          "type": "address"
        },
        {
          "indexed": false,
          "internalType": "address",
          "name": "newAdmin",
          "type": "address"
        }
      ],
      "name": "AdminChanged",
      "type": "event"
    },
    {
      "anonymous": false,
      "inputs": [
        {
          "indexed": true,
          "internalType": "address",
          "name": "owner",
          "type": "address"
        },
        {
          "indexed": true,
          "internalType": "address",
          "name": "approved",
          "type": "address"
        },
        {
          "indexed": true,
          "internalType": "uint256",
          "name": "tokenId",
          "type": "uint256"
        }
      ],
      "name": "Approval",
      "type": "event"
    },
    {
      "anonymous": false,
      "inputs": [
        {
          "indexed": true,
          "internalType": "address",
          "name": "owner",
          "type": "address"
        },
        {
          "indexed": true,
          "internalType": "address",
          "name": "operator",
          "type": "address"
        },
        {
          "indexed": false,
          "internalType": "bool",
          "name": "approved",
          "type": "bool"
        }
      ],
      "name": "ApprovalForAll",
      "type": "event"
    },
    {
      "anonymous": false,
      "inputs": [
        {
          "indexed": true,
          "internalType": "address",
          "name": "beacon",
          "type": "address"
        }
      ],
      "name": "BeaconUpgraded",
      "type": "event"
    },
    {
      "anonymous": false,
      "inputs": [
        {
          "indexed": false,
          "internalType": "uint8",
          "name": "version",
          "type": "uint8"
        }
      ],
      "name": "Initialized",
      "type": "event"
    },
    {
      "anonymous": false,
      "inputs": [
        {
          "indexed": true,
          "internalType": "address",
          "name": "previousOwner",
          "type": "address"
        },
        {
          "indexed": true,
          "internalType": "address",
          "name": "newOwner",
          "type": "address"
        }
      ],
      "name": "OwnershipTransferred",
      "type": "event"
    },
    {
      "anonymous": false,
      "inputs": [
        {
          "indexed": true,
          "internalType": "address",
          "name": "from",
          "type": "address"
        },
        {
          "indexed": true,
          "internalType": "address",
          "name": "to",
          "type": "address"
        },
        {
          "indexed": true,
          "internalType": "uint256",
          "name": "tokenId",
          "type": "uint256"
        }
      ],
      "name": "Transfer",
      "type": "event"
    },
    {
      "anonymous": false,
      "inputs": [
        {
          "indexed": true,
          "internalType": "address",
          "name": "implementation",
          "type": "address"
        }
      ],
      "name": "Upgraded",
      "type": "event"
    },
    {
      "inputs": [
        {
          "internalType": "address",
          "name": "to",
          "type": "address"
        },
        {
          "internalType": "uint256",
          "name": "tokenId",
          "type": "uint256"
        }
      ],
      "name": "approve",
      "outputs": [],
      "stateMutability": "nonpayable",
      "type": "function"
    },
    {
      "inputs": [
        {
          "internalType": "address",
          "name": "owner",
          "type": "address"
        }
      ],
      "name": "balanceOf",
      "outputs": [
        {
          "internalType": "uint256",
          "name": "",
          "type": "uint256"
        }
      ],
      "stateMutability": "view",
      "type": "function"
    },
    {
      "inputs": [
        {
          "internalType": "uint256",
          "name": "tokenId",
          "type": "uint256"
        }
      ],
      "name": "getApproved",
      "outputs": [
        {
          "internalType": "address",
          "name": "",
          "type": "address"
        }
      ],
      "stateMutability": "view",
      "type": "function"
    },
    {
      "inputs": [],
      "name": "initialize",
      "outputs": [],
      "stateMutability": "nonpayable",
      "type": "function"
    },
    {
      "inputs": [
        {
          "internalType": "address",
          "name": "owner",
          "type": "address"
        },
        {
          "internalType": "address",
          "name": "operator",
          "type": "address"
        }
      ],
      "name": "isApprovedForAll",
      "outputs": [
        {
          "internalType": "bool",
          "name": "",
          "type": "bool"
        }
      ],
      "stateMutability": "view",
      "type": "function"
    },
    {
      "inputs": [],
      "name": "name",
      "outputs": [
        {
          "internalType": "string",
          "name": "",
          "type": "string"
        }
      ],
      "stateMutability": "view",
      "type": "function"
    },
    {
      "inputs": [],
      "name": "owner",
      "outputs": [
        {
          "internalType": "address",
          "name": "",
          "type": "address"
        }
      ],
      "stateMutability": "view",
      "type": "function"
    },
    {
      "inputs": [
        {
          "internalType": "uint256",
          "name": "tokenId",
          "type": "uint256"
        }
      ],
      "name": "ownerOf",
      "outputs": [
        {
          "internalType": "address",
          "name": "",
          "type": "address"
        }
      ],
      "stateMutability": "view",
      "type": "function"
    },
    {
      "inputs": [],
      "name": "proxiableUUID",
      "outputs": [
        {
          "internalType": "bytes32",
          "name": "",
          "type": "bytes32"
        }
      ],
      "stateMutability": "view",
      "type": "function"
    },
    {
      "inputs": [],
      "name": "renounceOwnership",
      "outputs": [],
      "stateMutability": "nonpayable",
      "type": "function"
    },
    {
      "inputs": [
        {
          "internalType": "address",
          "name": "from",
          "type": "address"
        },
        {
          "internalType": "address",
          "name": "to",
          "type": "address"
        },
        {
          "internalType": "uint256",
          "name": "tokenId",
          "type": "uint256"
        }
      ],
      "name": "safeTransferFrom",
      "outputs": [],
      "stateMutability": "nonpayable",
      "type": "function"
    },
    {
      "inputs": [
        {
          "internalType": "address",
          "name": "from",
          "type": "address"
        },
        {
          "internalType": "address",
          "name": "to",
          "type": "address"
        },
        {
          "internalType": "uint256",
          "name": "tokenId",
          "type": "uint256"
        },
        {
          "internalType": "bytes",
          "name": "_data",
          "type": "bytes"
        }
      ],
      "name": "safeTransferFrom",
      "outputs": [],
      "stateMutability": "nonpayable",
      "type": "function"
    },
    {
      "inputs": [
        {
          "internalType": "address",
          "name": "operator",
          "type": "address"
        },
        {
          "internalType": "bool",
          "name": "approved",
          "type": "bool"
        }
      ],
      "name": "setApprovalForAll",
      "outputs": [],
      "stateMutability": "nonpayable",
      "type": "function"
    },
    {
      "inputs": [
        {
          "internalType": "bytes4",
          "name": "interfaceId",
          "type": "bytes4"
        }
      ],
      "name": "supportsInterface",
      "outputs": [
        {
          "internalType": "bool",
          "name": "",
          "type": "bool"
        }
      ],
      "stateMutability": "view",
      "type": "function"
    },
    {
      "inputs": [],
      "name": "symbol",
      "outputs": [
        {
          "internalType": "string",
          "name": "",
          "type": "string"
        }
      ],
      "stateMutability": "view",
      "type": "function"
    },
    {
      "inputs": [
        {
          "internalType": "uint256",
          "name": "tokenId",
          "type": "uint256"
        }
      ],
      "name": "tokenURI",
      "outputs": [
        {
          "internalType": "string",
          "name": "",
          "type": "string"
        }
      ],
      "stateMutability": "view",
      "type": "function"
    },
    {
      "inputs": [
        {
          "internalType": "address",
          "name": "from",
          "type": "address"
        },
        {
          "internalType": "address",
          "name": "to",
          "type": "address"
        },
        {
          "internalType": "uint256",
          "name": "tokenId",
          "type": "uint256"
        }
      ],
      "name": "transferFrom",
      "outputs": [],
      "stateMutability": "nonpayable",
      "type": "function"
    },
    {
      "inputs": [
        {
          "internalType": "address",
          "name": "newOwner",
          "type": "address"
        }
      ],
      "name": "transferOwnership",
      "outputs": [],
      "stateMutability": "nonpayable",
      "type": "function"
    },
    {
      "inputs": [
        {
          "internalType": "address",
          "name": "newImplementation",
          "type": "address"
        }
      ],
      "name": "upgradeTo",
      "outputs": [],
      "stateMutability": "nonpayable",
      "type": "function"
    },
    {
      "inputs": [
        {
          "internalType": "address",
          "name": "newImplementation",
          "type": "address"
        },
        {
          "internalType": "bytes",
          "name": "data",
          "type": "bytes"
        }
      ],
      "name": "upgradeToAndCall",
      "outputs": [],
      "stateMutability": "payable",
      "type": "function"
    },
    {
      "inputs": [],
      "name": "val",
      "outputs": [
        {
          "internalType": "uint256",
          "name": "",
          "type": "uint256"
        }
      ],
      "stateMutability": "view",
      "type": "function"
    }
  ],
  "bytecode": "0x60a06040523073ffffffffffffffffffffffffffffffffffffffff1660809073ffffffffffffffffffffffffffffffffffffffff168152503480156200004457600080fd5b506000620000596001620000e160201b60201c565b905080156200007e576001600060016101000a81548160ff0219169083151502179055505b8015620000da5760008060016101000a81548160ff0219169083151502179055507f7f26b83ff96e1f2b6a682f133852f6798a09c465da95921460cefb38474024986001604051620000d1919062000264565b60405180910390a15b506200032a565b60008060019054906101000a900460ff16156200016b5760018260ff161480156200011f57506200011d30620001e760201b620012701760201c565b155b62000161576040517f08c379a0000000000000000000000000000000000000000000000000000000008152600401620001589062000308565b60405180910390fd5b60009050620001e2565b8160ff1660008054906101000a900460ff1660ff1610620001c3576040517f08c379a0000000000000000000000000000000000000000000000000000000008152600401620001ba9062000308565b60405180910390fd5b816000806101000a81548160ff021916908360ff160217905550600190505b919050565b6000808273ffffffffffffffffffffffffffffffffffffffff163b119050919050565b6000819050919050565b600060ff82169050919050565b6000819050919050565b60006200024c6200024662000240846200020a565b62000221565b62000214565b9050919050565b6200025e816200022b565b82525050565b60006020820190506200027b600083018462000253565b92915050565b600082825260208201905092915050565b7f496e697469616c697a61626c653a20636f6e747261637420697320616c72656160008201527f647920696e697469616c697a6564000000000000000000000000000000000000602082015250565b6000620002f0602e8362000281565b9150620002fd8262000292565b604082019050919050565b600060208201905081810360008301526200032381620002e1565b9050919050565b60805161400e6200036260003960008181610850015281816108df01528181610a0001528181610a8f0152610b3f015261400e6000f3fe60806040526004361061012a5760003560e01c80636352211e116100ab57806395d89b411161006f57806395d89b41146103bd578063a22cb465146103e8578063b88d4fde14610411578063c87b56dd1461043a578063e985e9c514610477578063f2fde38b146104b45761012a565b80636352211e146102ea57806370a0823114610327578063715018a6146103645780638129fc1c1461037b5780638da5cb5b146103925761012a565b80633659cfe6116100f25780633659cfe6146102265780633c6bb4361461024f57806342842e0e1461027a5780634f1ef286146102a357806352d1902d146102bf5761012a565b806301ffc9a71461012f57806306fdde031461016c578063081812fc14610197578063095ea7b3146101d457806323b872dd146101fd575b600080fd5b34801561013b57600080fd5b50610156600480360381019061015191906127a1565b6104dd565b60405161016391906127e9565b60405180910390f35b34801561017857600080fd5b506101816105bf565b60405161018e919061289d565b60405180910390f35b3480156101a357600080fd5b506101be60048036038101906101b991906128f5565b610651565b6040516101cb9190612963565b60405180910390f35b3480156101e057600080fd5b506101fb60048036038101906101f691906129aa565b6106d6565b005b34801561020957600080fd5b50610224600480360381019061021f91906129ea565b6107ee565b005b34801561023257600080fd5b5061024d60048036038101906102489190612a3d565b61084e565b005b34801561025b57600080fd5b506102646109d7565b6040516102719190612a79565b60405180910390f35b34801561028657600080fd5b506102a1600480360381019061029c91906129ea565b6109de565b005b6102bd60048036038101906102b89190612bc9565b6109fe565b005b3480156102cb57600080fd5b506102d4610b3b565b6040516102e19190612c3e565b60405180910390f35b3480156102f657600080fd5b50610311600480360381019061030c91906128f5565b610bf4565b60405161031e9190612963565b60405180910390f35b34801561033357600080fd5b5061034e60048036038101906103499190612a3d565b610ca6565b60405161035b9190612a79565b60405180910390f35b34801561037057600080fd5b50610379610d5e565b005b34801561038757600080fd5b50610390610de6565b005b34801561039e57600080fd5b506103a7610f09565b6040516103b49190612963565b60405180910390f35b3480156103c957600080fd5b506103d2610f33565b6040516103df919061289d565b60405180910390f35b3480156103f457600080fd5b5061040f600480360381019061040a9190612c85565b610fc5565b005b34801561041d57600080fd5b5061043860048036038101906104339190612cc5565b610fdb565b005b34801561044657600080fd5b50610461600480360381019061045c91906128f5565b61103d565b60405161046e919061289d565b60405180910390f35b34801561048357600080fd5b5061049e60048036038101906104999190612d48565b6110e4565b6040516104ab91906127e9565b60405180910390f35b3480156104c057600080fd5b506104db60048036038101906104d69190612a3d565b611178565b005b60007f80ac58cd000000000000000000000000000000000000000000000000000000007bffffffffffffffffffffffffffffffffffffffffffffffffffffffff1916827bffffffffffffffffffffffffffffffffffffffffffffffffffffffff191614806105a857507f5b5e139f000000000000000000000000000000000000000000000000000000007bffffffffffffffffffffffffffffffffffffffffffffffffffffffff1916827bffffffffffffffffffffffffffffffffffffffffffffffffffffffff1916145b806105b857506105b782611293565b5b9050919050565b6060606580546105ce90612db7565b80601f01602080910402602001604051908101604052809291908181526020018280546105fa90612db7565b80156106475780601f1061061c57610100808354040283529160200191610647565b820191906000526020600020905b81548152906001019060200180831161062a57829003601f168201915b5050505050905090565b600061065c826112fd565b61069b576040517f08c379a000000000000000000000000000000000000000000000000000000000815260040161069290612e5b565b60405180910390fd5b6069600083815260200190815260200160002060009054906101000a900473ffffffffffffffffffffffffffffffffffffffff169050919050565b60006106e182610bf4565b90508073ffffffffffffffffffffffffffffffffffffffff168373ffffffffffffffffffffffffffffffffffffffff161415610752576040517f08c379a000000000000000000000000000000000000000000000000000000000815260040161074990612eed565b60405180910390fd5b8073ffffffffffffffffffffffffffffffffffffffff16610771611369565b73ffffffffffffffffffffffffffffffffffffffff1614806107a0575061079f8161079a611369565b6110e4565b5b6107df576040517f08c379a00000000000000000000000000000000000000000000000000000000081526004016107d690612f7f565b60405180910390fd5b6107e98383611371565b505050565b6107ff6107f9611369565b8261142a565b61083e576040517f08c379a000000000000000000000000000000000000000000000000000000000815260040161083590613011565b60405180910390fd5b610849838383611508565b505050565b7f000000000000000000000000000000000000000000000000000000000000000073ffffffffffffffffffffffffffffffffffffffff163073ffffffffffffffffffffffffffffffffffffffff1614156108dd576040517f08c379a00000000000000000000000000000000000000000000000000000000081526004016108d4906130a3565b60405180910390fd5b7f000000000000000000000000000000000000000000000000000000000000000073ffffffffffffffffffffffffffffffffffffffff1661091c61176f565b73ffffffffffffffffffffffffffffffffffffffff1614610972576040517f08c379a000000000000000000000000000000000000000000000000000000000815260040161096990613135565b60405180910390fd5b61097b816117c6565b6109d481600067ffffffffffffffff81111561099a57610999612a9e565b5b6040519080825280601f01601f1916602001820160405280156109cc5781602001600182028036833780820191505090505b506000611845565b50565b61012d5481565b6109f983838360405180602001604052806000815250610fdb565b505050565b7f000000000000000000000000000000000000000000000000000000000000000073ffffffffffffffffffffffffffffffffffffffff163073ffffffffffffffffffffffffffffffffffffffff161415610a8d576040517f08c379a0000000000000000000000000000000000000000000000000000000008152600401610a84906130a3565b60405180910390fd5b7f000000000000000000000000000000000000000000000000000000000000000073ffffffffffffffffffffffffffffffffffffffff16610acc61176f565b73ffffffffffffffffffffffffffffffffffffffff1614610b22576040517f08c379a0000000000000000000000000000000000000000000000000000000008152600401610b1990613135565b60405180910390fd5b610b2b826117c6565b610b3782826001611845565b5050565b60007f000000000000000000000000000000000000000000000000000000000000000073ffffffffffffffffffffffffffffffffffffffff163073ffffffffffffffffffffffffffffffffffffffff1614610bcb576040517f08c379a0000000000000000000000000000000000000000000000000000000008152600401610bc2906131c7565b60405180910390fd5b7f360894a13ba1a3210667c828492db98dca3e2076cc3735a920a3ca505d382bbc60001b905090565b6000806067600084815260200190815260200160002060009054906101000a900473ffffffffffffffffffffffffffffffffffffffff169050600073ffffffffffffffffffffffffffffffffffffffff168173ffffffffffffffffffffffffffffffffffffffff161415610c9d576040517f08c379a0000000000000000000000000000000000000000000000000000000008152600401610c9490613259565b60405180910390fd5b80915050919050565b60008073ffffffffffffffffffffffffffffffffffffffff168273ffffffffffffffffffffffffffffffffffffffff161415610d17576040517f08c379a0000000000000000000000000000000000000000000000000000000008152600401610d0e906132eb565b60405180910390fd5b606860008373ffffffffffffffffffffffffffffffffffffffff1673ffffffffffffffffffffffffffffffffffffffff168152602001908152602001600020549050919050565b610d66611369565b73ffffffffffffffffffffffffffffffffffffffff16610d84610f09565b73ffffffffffffffffffffffffffffffffffffffff1614610dda576040517f08c379a0000000000000000000000000000000000000000000000000000000008152600401610dd190613357565b60405180910390fd5b610de460006119b3565b565b6000610df26001611a79565b90508015610e16576001600060016101000a81548160ff0219169083151502179055505b610e8a6040518060400160405280601181526020017f4d7948617264686174546f6b656e4e46540000000000000000000000000000008152506040518060400160405280600381526020017f4e46540000000000000000000000000000000000000000000000000000000000815250611b69565b610e92611bc6565b610e9a611c1f565b610ead33681166c51744e4640000611c70565b8015610f065760008060016101000a81548160ff0219169083151502179055507f7f26b83ff96e1f2b6a682f133852f6798a09c465da95921460cefb38474024986001604051610efd91906133c9565b60405180910390a15b50565b600060fb60009054906101000a900473ffffffffffffffffffffffffffffffffffffffff16905090565b606060668054610f4290612db7565b80601f0160208091040260200160405190810160405280929190818152602001828054610f6e90612db7565b8015610fbb5780601f10610f9057610100808354040283529160200191610fbb565b820191906000526020600020905b815481529060010190602001808311610f9e57829003601f168201915b5050505050905090565b610fd7610fd0611369565b8383611e4a565b5050565b610fec610fe6611369565b8361142a565b61102b576040517f08c379a000000000000000000000000000000000000000000000000000000000815260040161102290613011565b60405180910390fd5b61103784848484611fb7565b50505050565b6060611048826112fd565b611087576040517f08c379a000000000000000000000000000000000000000000000000000000000815260040161107e90613456565b60405180910390fd5b6000611091612013565b905060008151116110b157604051806020016040528060008152506110dc565b806110bb8461202a565b6040516020016110cc9291906134b2565b6040516020818303038152906040525b915050919050565b6000606a60008473ffffffffffffffffffffffffffffffffffffffff1673ffffffffffffffffffffffffffffffffffffffff16815260200190815260200160002060008373ffffffffffffffffffffffffffffffffffffffff1673ffffffffffffffffffffffffffffffffffffffff16815260200190815260200160002060009054906101000a900460ff16905092915050565b611180611369565b73ffffffffffffffffffffffffffffffffffffffff1661119e610f09565b73ffffffffffffffffffffffffffffffffffffffff16146111f4576040517f08c379a00000000000000000000000000000000000000000000000000000000081526004016111eb90613357565b60405180910390fd5b600073ffffffffffffffffffffffffffffffffffffffff168173ffffffffffffffffffffffffffffffffffffffff161415611264576040517f08c379a000000000000000000000000000000000000000000000000000000000815260040161125b90613548565b60405180910390fd5b61126d816119b3565b50565b6000808273ffffffffffffffffffffffffffffffffffffffff163b119050919050565b60007f01ffc9a7000000000000000000000000000000000000000000000000000000007bffffffffffffffffffffffffffffffffffffffffffffffffffffffff1916827bffffffffffffffffffffffffffffffffffffffffffffffffffffffff1916149050919050565b60008073ffffffffffffffffffffffffffffffffffffffff166067600084815260200190815260200160002060009054906101000a900473ffffffffffffffffffffffffffffffffffffffff1673ffffffffffffffffffffffffffffffffffffffff1614159050919050565b600033905090565b816069600083815260200190815260200160002060006101000a81548173ffffffffffffffffffffffffffffffffffffffff021916908373ffffffffffffffffffffffffffffffffffffffff160217905550808273ffffffffffffffffffffffffffffffffffffffff166113e483610bf4565b73ffffffffffffffffffffffffffffffffffffffff167f8c5be1e5ebec7d5bd14f71427d1e84f3dd0314c0f7b2291e5b200ac8c7c3b92560405160405180910390a45050565b6000611435826112fd565b611474576040517f08c379a000000000000000000000000000000000000000000000000000000000815260040161146b906135da565b60405180910390fd5b600061147f83610bf4565b90508073ffffffffffffffffffffffffffffffffffffffff168473ffffffffffffffffffffffffffffffffffffffff1614806114c157506114c081856110e4565b5b806114ff57508373ffffffffffffffffffffffffffffffffffffffff166114e784610651565b73ffffffffffffffffffffffffffffffffffffffff16145b91505092915050565b8273ffffffffffffffffffffffffffffffffffffffff1661152882610bf4565b73ffffffffffffffffffffffffffffffffffffffff161461157e576040517f08c379a00000000000000000000000000000000000000000000000000000000081526004016115759061366c565b60405180910390fd5b600073ffffffffffffffffffffffffffffffffffffffff168273ffffffffffffffffffffffffffffffffffffffff1614156115ee576040517f08c379a00000000000000000000000000000000000000000000000000000000081526004016115e5906136fe565b60405180910390fd5b6115f983838361218b565b611604600082611371565b6001606860008573ffffffffffffffffffffffffffffffffffffffff1673ffffffffffffffffffffffffffffffffffffffff1681526020019081526020016000206000828254611654919061374d565b925050819055506001606860008473ffffffffffffffffffffffffffffffffffffffff1673ffffffffffffffffffffffffffffffffffffffff16815260200190815260200160002060008282546116ab9190613781565b92505081905550816067600083815260200190815260200160002060006101000a81548173ffffffffffffffffffffffffffffffffffffffff021916908373ffffffffffffffffffffffffffffffffffffffff160217905550808273ffffffffffffffffffffffffffffffffffffffff168473ffffffffffffffffffffffffffffffffffffffff167fddf252ad1be2c89b69c2b068fc378daa952ba7f163c4a11628f55a4df523b3ef60405160405180910390a461176a838383612190565b505050565b600061179d7f360894a13ba1a3210667c828492db98dca3e2076cc3735a920a3ca505d382bbc60001b612195565b60000160009054906101000a900473ffffffffffffffffffffffffffffffffffffffff16905090565b6117ce611369565b73ffffffffffffffffffffffffffffffffffffffff166117ec610f09565b73ffffffffffffffffffffffffffffffffffffffff1614611842576040517f08c379a000000000000000000000000000000000000000000000000000000000815260040161183990613357565b60405180910390fd5b50565b6118717f4910fdfa16fed3260ed0e7147f7cc6da11a60208b5b9406d12a635614ffd914360001b61219f565b60000160009054906101000a900460ff161561189557611890836121a9565b6119ae565b8273ffffffffffffffffffffffffffffffffffffffff166352d1902d6040518163ffffffff1660e01b8152600401602060405180830381865afa9250505080156118fd57506040513d601f19601f820116820180604052508101906118fa9190613803565b60015b61193c576040517f08c379a0000000000000000000000000000000000000000000000000000000008152600401611933906138a2565b60405180910390fd5b7f360894a13ba1a3210667c828492db98dca3e2076cc3735a920a3ca505d382bbc60001b81146119a1576040517f08c379a000000000000000000000000000000000000000000000000000000000815260040161199890613934565b60405180910390fd5b506119ad838383612262565b5b505050565b600060fb60009054906101000a900473ffffffffffffffffffffffffffffffffffffffff1690508160fb60006101000a81548173ffffffffffffffffffffffffffffffffffffffff021916908373ffffffffffffffffffffffffffffffffffffffff1602179055508173ffffffffffffffffffffffffffffffffffffffff168173ffffffffffffffffffffffffffffffffffffffff167f8be0079c531659141344cd1fd0a4f28419497f9722a3daafe3b4186f6b6457e060405160405180910390a35050565b60008060019054906101000a900460ff1615611af05760018260ff16148015611aa85750611aa630611270565b155b611ae7576040517f08c379a0000000000000000000000000000000000000000000000000000000008152600401611ade906139c6565b60405180910390fd5b60009050611b64565b8160ff1660008054906101000a900460ff1660ff1610611b45576040517f08c379a0000000000000000000000000000000000000000000000000000000008152600401611b3c906139c6565b60405180910390fd5b816000806101000a81548160ff021916908360ff160217905550600190505b919050565b600060019054906101000a900460ff16611bb8576040517f08c379a0000000000000000000000000000000000000000000000000000000008152600401611baf90613a58565b60405180910390fd5b611bc2828261228e565b5050565b600060019054906101000a900460ff16611c15576040517f08c379a0000000000000000000000000000000000000000000000000000000008152600401611c0c90613a58565b60405180910390fd5b611c1d61230f565b565b600060019054906101000a900460ff16611c6e576040517f08c379a0000000000000000000000000000000000000000000000000000000008152600401611c6590613a58565b60405180910390fd5b565b600073ffffffffffffffffffffffffffffffffffffffff168273ffffffffffffffffffffffffffffffffffffffff161415611ce0576040517f08c379a0000000000000000000000000000000000000000000000000000000008152600401611cd790613ac4565b60405180910390fd5b611ce9816112fd565b15611d29576040517f08c379a0000000000000000000000000000000000000000000000000000000008152600401611d2090613b30565b60405180910390fd5b611d356000838361218b565b6001606860008473ffffffffffffffffffffffffffffffffffffffff1673ffffffffffffffffffffffffffffffffffffffff1681526020019081526020016000206000828254611d859190613781565b92505081905550816067600083815260200190815260200160002060006101000a81548173ffffffffffffffffffffffffffffffffffffffff021916908373ffffffffffffffffffffffffffffffffffffffff160217905550808273ffffffffffffffffffffffffffffffffffffffff16600073ffffffffffffffffffffffffffffffffffffffff167fddf252ad1be2c89b69c2b068fc378daa952ba7f163c4a11628f55a4df523b3ef60405160405180910390a4611e4660008383612190565b5050565b8173ffffffffffffffffffffffffffffffffffffffff168373ffffffffffffffffffffffffffffffffffffffff161415611eb9576040517f08c379a0000000000000000000000000000000000000000000000000000000008152600401611eb090613b9c565b60405180910390fd5b80606a60008573ffffffffffffffffffffffffffffffffffffffff1673ffffffffffffffffffffffffffffffffffffffff16815260200190815260200160002060008473ffffffffffffffffffffffffffffffffffffffff1673ffffffffffffffffffffffffffffffffffffffff16815260200190815260200160002060006101000a81548160ff0219169083151502179055508173ffffffffffffffffffffffffffffffffffffffff168373ffffffffffffffffffffffffffffffffffffffff167f17307eab39ab6107e8899845ad3d59bd9653f200f220920489ca2b5937696c3183604051611faa91906127e9565b60405180910390a3505050565b611fc2848484611508565b611fce84848484612370565b61200d576040517f08c379a000000000000000000000000000000000000000000000000000000000815260040161200490613c2e565b60405180910390fd5b50505050565b606060405180602001604052806000815250905090565b60606000821415612072576040518060400160405280600181526020017f30000000000000000000000000000000000000000000000000000000000000008152509050612186565b600082905060005b600082146120a457808061208d90613c4e565b915050600a8261209d9190613cc6565b915061207a565b60008167ffffffffffffffff8111156120c0576120bf612a9e565b5b6040519080825280601f01601f1916602001820160405280156120f25781602001600182028036833780820191505090505b5090505b6000851461217f5760018261210b919061374d565b9150600a8561211a9190613cf7565b60306121269190613781565b60f81b81838151811061213c5761213b613d28565b5b60200101907effffffffffffffffffffffffffffffffffffffffffffffffffffffffffffff1916908160001a905350600a856121789190613cc6565b94506120f6565b8093505050505b919050565b505050565b505050565b6000819050919050565b6000819050919050565b6121b281611270565b6121f1576040517f08c379a00000000000000000000000000000000000000000000000000000000081526004016121e890613dc9565b60405180910390fd5b8061221e7f360894a13ba1a3210667c828492db98dca3e2076cc3735a920a3ca505d382bbc60001b612195565b60000160006101000a81548173ffffffffffffffffffffffffffffffffffffffff021916908373ffffffffffffffffffffffffffffffffffffffff16021790555050565b61226b836124f8565b6000825111806122785750805b15612289576122878383612547565b505b505050565b600060019054906101000a900460ff166122dd576040517f08c379a00000000000000000000000000000000000000000000000000000000081526004016122d490613a58565b60405180910390fd5b81606590805190602001906122f3929190612692565b50806066908051906020019061230a929190612692565b505050565b600060019054906101000a900460ff1661235e576040517f08c379a000000000000000000000000000000000000000000000000000000000815260040161235590613a58565b60405180910390fd5b61236e612369611369565b6119b3565b565b60006123918473ffffffffffffffffffffffffffffffffffffffff16611270565b156124eb578373ffffffffffffffffffffffffffffffffffffffff1663150b7a026123ba611369565b8786866040518563ffffffff1660e01b81526004016123dc9493929190613e3e565b6020604051808303816000875af192505050801561241857506040513d601f19601f820116820180604052508101906124159190613e9f565b60015b61249b573d8060008114612448576040519150601f19603f3d011682016040523d82523d6000602084013e61244d565b606091505b50600081511415612493576040517f08c379a000000000000000000000000000000000000000000000000000000000815260040161248a90613c2e565b60405180910390fd5b805181602001fd5b63150b7a0260e01b7bffffffffffffffffffffffffffffffffffffffffffffffffffffffff1916817bffffffffffffffffffffffffffffffffffffffffffffffffffffffff1916149150506124f0565b600190505b949350505050565b612501816121a9565b8073ffffffffffffffffffffffffffffffffffffffff167fbc7cd75a20ee27fd9adebab32041f755214dbc6bffa90cc0225b39da2e5c2d3b60405160405180910390a250565b606061255283611270565b612591576040517f08c379a000000000000000000000000000000000000000000000000000000000815260040161258890613f3e565b60405180910390fd5b6000808473ffffffffffffffffffffffffffffffffffffffff16846040516125b99190613f9a565b600060405180830381855af49150503d80600081146125f4576040519150601f19603f3d011682016040523d82523d6000602084013e6125f9565b606091505b50915091506126218282604051806060016040528060278152602001613fb26027913961262b565b9250505092915050565b6060831561263b5782905061268b565b60008351111561264e5782518084602001fd5b816040517f08c379a0000000000000000000000000000000000000000000000000000000008152600401612682919061289d565b60405180910390fd5b9392505050565b82805461269e90612db7565b90600052602060002090601f0160209004810192826126c05760008555612707565b82601f106126d957805160ff1916838001178555612707565b82800160010185558215612707579182015b828111156127065782518255916020019190600101906126eb565b5b5090506127149190612718565b5090565b5b80821115612731576000816000905550600101612719565b5090565b6000604051905090565b600080fd5b600080fd5b60007fffffffff0000000000000000000000000000000000000000000000000000000082169050919050565b61277e81612749565b811461278957600080fd5b50565b60008135905061279b81612775565b92915050565b6000602082840312156127b7576127b661273f565b5b60006127c58482850161278c565b91505092915050565b60008115159050919050565b6127e3816127ce565b82525050565b60006020820190506127fe60008301846127da565b92915050565b600081519050919050565b600082825260208201905092915050565b60005b8381101561283e578082015181840152602081019050612823565b8381111561284d576000848401525b50505050565b6000601f19601f8301169050919050565b600061286f82612804565b612879818561280f565b9350612889818560208601612820565b61289281612853565b840191505092915050565b600060208201905081810360008301526128b78184612864565b905092915050565b6000819050919050565b6128d2816128bf565b81146128dd57600080fd5b50565b6000813590506128ef816128c9565b92915050565b60006020828403121561290b5761290a61273f565b5b6000612919848285016128e0565b91505092915050565b600073ffffffffffffffffffffffffffffffffffffffff82169050919050565b600061294d82612922565b9050919050565b61295d81612942565b82525050565b60006020820190506129786000830184612954565b92915050565b61298781612942565b811461299257600080fd5b50565b6000813590506129a48161297e565b92915050565b600080604083850312156129c1576129c061273f565b5b60006129cf85828601612995565b92505060206129e0858286016128e0565b9150509250929050565b600080600060608486031215612a0357612a0261273f565b5b6000612a1186828701612995565b9350506020612a2286828701612995565b9250506040612a33868287016128e0565b9150509250925092565b600060208284031215612a5357612a5261273f565b5b6000612a6184828501612995565b91505092915050565b612a73816128bf565b82525050565b6000602082019050612a8e6000830184612a6a565b92915050565b600080fd5b600080fd5b7f4e487b7100000000000000000000000000000000000000000000000000000000600052604160045260246000fd5b612ad682612853565b810181811067ffffffffffffffff82111715612af557612af4612a9e565b5b80604052505050565b6000612b08612735565b9050612b148282612acd565b919050565b600067ffffffffffffffff821115612b3457612b33612a9e565b5b612b3d82612853565b9050602081019050919050565b82818337600083830152505050565b6000612b6c612b6784612b19565b612afe565b905082815260208101848484011115612b8857612b87612a99565b5b612b93848285612b4a565b509392505050565b600082601f830112612bb057612baf612a94565b5b8135612bc0848260208601612b59565b91505092915050565b60008060408385031215612be057612bdf61273f565b5b6000612bee85828601612995565b925050602083013567ffffffffffffffff811115612c0f57612c0e612744565b5b612c1b85828601612b9b565b9150509250929050565b6000819050919050565b612c3881612c25565b82525050565b6000602082019050612c536000830184612c2f565b92915050565b612c62816127ce565b8114612c6d57600080fd5b50565b600081359050612c7f81612c59565b92915050565b60008060408385031215612c9c57612c9b61273f565b5b6000612caa85828601612995565b9250506020612cbb85828601612c70565b9150509250929050565b60008060008060808587031215612cdf57612cde61273f565b5b6000612ced87828801612995565b9450506020612cfe87828801612995565b9350506040612d0f878288016128e0565b925050606085013567ffffffffffffffff811115612d3057612d2f612744565b5b612d3c87828801612b9b565b91505092959194509250565b60008060408385031215612d5f57612d5e61273f565b5b6000612d6d85828601612995565b9250506020612d7e85828601612995565b9150509250929050565b7f4e487b7100000000000000000000000000000000000000000000000000000000600052602260045260246000fd5b60006002820490506001821680612dcf57607f821691505b60208210811415612de357612de2612d88565b5b50919050565b7f4552433732313a20617070726f76656420717565727920666f72206e6f6e657860008201527f697374656e7420746f6b656e0000000000000000000000000000000000000000602082015250565b6000612e45602c8361280f565b9150612e5082612de9565b604082019050919050565b60006020820190508181036000830152612e7481612e38565b9050919050565b7f4552433732313a20617070726f76616c20746f2063757272656e74206f776e6560008201527f7200000000000000000000000000000000000000000000000000000000000000602082015250565b6000612ed760218361280f565b9150612ee282612e7b565b604082019050919050565b60006020820190508181036000830152612f0681612eca565b9050919050565b7f4552433732313a20617070726f76652063616c6c6572206973206e6f74206f7760008201527f6e6572206e6f7220617070726f76656420666f7220616c6c0000000000000000602082015250565b6000612f6960388361280f565b9150612f7482612f0d565b604082019050919050565b60006020820190508181036000830152612f9881612f5c565b9050919050565b7f4552433732313a207472616e736665722063616c6c6572206973206e6f74206f60008201527f776e6572206e6f7220617070726f766564000000000000000000000000000000602082015250565b6000612ffb60318361280f565b915061300682612f9f565b604082019050919050565b6000602082019050818103600083015261302a81612fee565b9050919050565b7f46756e6374696f6e206d7573742062652063616c6c6564207468726f7567682060008201527f64656c656761746563616c6c0000000000000000000000000000000000000000602082015250565b600061308d602c8361280f565b915061309882613031565b604082019050919050565b600060208201905081810360008301526130bc81613080565b9050919050565b7f46756e6374696f6e206d7573742062652063616c6c6564207468726f7567682060008201527f6163746976652070726f78790000000000000000000000000000000000000000602082015250565b600061311f602c8361280f565b915061312a826130c3565b604082019050919050565b6000602082019050818103600083015261314e81613112565b9050919050565b7f555550535570677261646561626c653a206d757374206e6f742062652063616c60008201527f6c6564207468726f7567682064656c656761746563616c6c0000000000000000602082015250565b60006131b160388361280f565b91506131bc82613155565b604082019050919050565b600060208201905081810360008301526131e0816131a4565b9050919050565b7f4552433732313a206f776e657220717565727920666f72206e6f6e657869737460008201527f656e7420746f6b656e0000000000000000000000000000000000000000000000602082015250565b600061324360298361280f565b915061324e826131e7565b604082019050919050565b6000602082019050818103600083015261327281613236565b9050919050565b7f4552433732313a2062616c616e636520717565727920666f7220746865207a6560008201527f726f206164647265737300000000000000000000000000000000000000000000602082015250565b60006132d5602a8361280f565b91506132e082613279565b604082019050919050565b60006020820190508181036000830152613304816132c8565b9050919050565b7f4f776e61626c653a2063616c6c6572206973206e6f7420746865206f776e6572600082015250565b600061334160208361280f565b915061334c8261330b565b602082019050919050565b6000602082019050818103600083015261337081613334565b9050919050565b6000819050919050565b600060ff82169050919050565b6000819050919050565b60006133b36133ae6133a984613377565b61338e565b613381565b9050919050565b6133c381613398565b82525050565b60006020820190506133de60008301846133ba565b92915050565b7f4552433732314d657461646174613a2055524920717565727920666f72206e6f60008201527f6e6578697374656e7420746f6b656e0000000000000000000000000000000000602082015250565b6000613440602f8361280f565b915061344b826133e4565b604082019050919050565b6000602082019050818103600083015261346f81613433565b9050919050565b600081905092915050565b600061348c82612804565b6134968185613476565b93506134a6818560208601612820565b80840191505092915050565b60006134be8285613481565b91506134ca8284613481565b91508190509392505050565b7f4f776e61626c653a206e6577206f776e657220697320746865207a65726f206160008201527f6464726573730000000000000000000000000000000000000000000000000000602082015250565b600061353260268361280f565b915061353d826134d6565b604082019050919050565b6000602082019050818103600083015261356181613525565b9050919050565b7f4552433732313a206f70657261746f7220717565727920666f72206e6f6e657860008201527f697374656e7420746f6b656e0000000000000000000000000000000000000000602082015250565b60006135c4602c8361280f565b91506135cf82613568565b604082019050919050565b600060208201905081810360008301526135f3816135b7565b9050919050565b7f4552433732313a207472616e736665722066726f6d20696e636f72726563742060008201527f6f776e6572000000000000000000000000000000000000000000000000000000602082015250565b600061365660258361280f565b9150613661826135fa565b604082019050919050565b6000602082019050818103600083015261368581613649565b9050919050565b7f4552433732313a207472616e7366657220746f20746865207a65726f2061646460008201527f7265737300000000000000000000000000000000000000000000000000000000602082015250565b60006136e860248361280f565b91506136f38261368c565b604082019050919050565b60006020820190508181036000830152613717816136db565b9050919050565b7f4e487b7100000000000000000000000000000000000000000000000000000000600052601160045260246000fd5b6000613758826128bf565b9150613763836128bf565b9250828210156137765761377561371e565b5b828203905092915050565b600061378c826128bf565b9150613797836128bf565b9250827fffffffffffffffffffffffffffffffffffffffffffffffffffffffffffffffff038211156137cc576137cb61371e565b5b828201905092915050565b6137e081612c25565b81146137eb57600080fd5b50565b6000815190506137fd816137d7565b92915050565b6000602082840312156138195761381861273f565b5b6000613827848285016137ee565b91505092915050565b7f45524331393637557067726164653a206e657720696d706c656d656e7461746960008201527f6f6e206973206e6f742055555053000000000000000000000000000000000000602082015250565b600061388c602e8361280f565b915061389782613830565b604082019050919050565b600060208201905081810360008301526138bb8161387f565b9050919050565b7f45524331393637557067726164653a20756e737570706f727465642070726f7860008201527f6961626c65555549440000000000000000000000000000000000000000000000602082015250565b600061391e60298361280f565b9150613929826138c2565b604082019050919050565b6000602082019050818103600083015261394d81613911565b9050919050565b7f496e697469616c697a61626c653a20636f6e747261637420697320616c72656160008201527f647920696e697469616c697a6564000000000000000000000000000000000000602082015250565b60006139b0602e8361280f565b91506139bb82613954565b604082019050919050565b600060208201905081810360008301526139df816139a3565b9050919050565b7f496e697469616c697a61626c653a20636f6e7472616374206973206e6f74206960008201527f6e697469616c697a696e67000000000000000000000000000000000000000000602082015250565b6000613a42602b8361280f565b9150613a4d826139e6565b604082019050919050565b60006020820190508181036000830152613a7181613a35565b9050919050565b7f4552433732313a206d696e7420746f20746865207a65726f2061646472657373600082015250565b6000613aae60208361280f565b9150613ab982613a78565b602082019050919050565b60006020820190508181036000830152613add81613aa1565b9050919050565b7f4552433732313a20746f6b656e20616c7265616479206d696e74656400000000600082015250565b6000613b1a601c8361280f565b9150613b2582613ae4565b602082019050919050565b60006020820190508181036000830152613b4981613b0d565b9050919050565b7f4552433732313a20617070726f766520746f2063616c6c657200000000000000600082015250565b6000613b8660198361280f565b9150613b9182613b50565b602082019050919050565b60006020820190508181036000830152613bb581613b79565b9050919050565b7f4552433732313a207472616e7366657220746f206e6f6e20455243373231526560008201527f63656976657220696d706c656d656e7465720000000000000000000000000000602082015250565b6000613c1860328361280f565b9150613c2382613bbc565b604082019050919050565b60006020820190508181036000830152613c4781613c0b565b9050919050565b6000613c59826128bf565b91507fffffffffffffffffffffffffffffffffffffffffffffffffffffffffffffffff821415613c8c57613c8b61371e565b5b600182019050919050565b7f4e487b7100000000000000000000000000000000000000000000000000000000600052601260045260246000fd5b6000613cd1826128bf565b9150613cdc836128bf565b925082613cec57613ceb613c97565b5b828204905092915050565b6000613d02826128bf565b9150613d0d836128bf565b925082613d1d57613d1c613c97565b5b828206905092915050565b7f4e487b7100000000000000000000000000000000000000000000000000000000600052603260045260246000fd5b7f455243313936373a206e657720696d706c656d656e746174696f6e206973206e60008201527f6f74206120636f6e747261637400000000000000000000000000000000000000602082015250565b6000613db3602d8361280f565b9150613dbe82613d57565b604082019050919050565b60006020820190508181036000830152613de281613da6565b9050919050565b600081519050919050565b600082825260208201905092915050565b6000613e1082613de9565b613e1a8185613df4565b9350613e2a818560208601612820565b613e3381612853565b840191505092915050565b6000608082019050613e536000830187612954565b613e606020830186612954565b613e6d6040830185612a6a565b8181036060830152613e7f8184613e05565b905095945050505050565b600081519050613e9981612775565b92915050565b600060208284031215613eb557613eb461273f565b5b6000613ec384828501613e8a565b91505092915050565b7f416464726573733a2064656c65676174652063616c6c20746f206e6f6e2d636f60008201527f6e74726163740000000000000000000000000000000000000000000000000000602082015250565b6000613f2860268361280f565b9150613f3382613ecc565b604082019050919050565b60006020820190508181036000830152613f5781613f1b565b9050919050565b600081905092915050565b6000613f7482613de9565b613f7e8185613f5e565b9350613f8e818560208601612820565b80840191505092915050565b6000613fa68284613f69565b91508190509291505056fe416464726573733a206c6f772d6c6576656c2064656c65676174652063616c6c206661696c6564a264697066735822122003d2ad1fa72dc2e1d81b536cce042daf9790e95ad2b636118e089e2049d6271564736f6c634300080a0033",
  "linkReferences": {},
  "deployedLinkReferences": {}
}